:020000040000FA
:0100000001FE
:0100010003FB
:0100020001FC
:0100030003F9
:0100040001FA
:0100050003F7
:0100060002F7
:0100070000F8
:0100080002F5
:0100090001F5
:01000A0003F2
:01000B0002F2
:01000C0000F3
:01000D0003EF
:01000E0001F0
:01000F0000F0
:0100100003EC
:0100110002EC
:0100120000ED
:0100130003E9
:0100140002E9
:0100150001E9
:0100160000E9
:0100170002E6
:0100180002E5
:0100190000E6
:01001A0000E5
:01001B0003E1
:01001C0002E1
:01001D0001E1
:01001E0000E1
:01001F0003DD
:0100200003DC
:0100210002DC
:0100220002DB
:0100230001DB
:0100240000DB
:0100250000DA
:0100260003D6
:0100270003D5
:0100280002D5
:0100290002D4
:01002A0002D3
:01002B0002D2
:01002C0001D2
:01002D0001D1
:01002E0001D0
:01002F0000D0
:0100300000CF
:0100310000CE
:0100320000CD
:0100330000CC
:0100340000CB
:0100350000CA
:0100360003C6
:0100370003C5
:0100380000C7
:0100390000C6
:01003A0000C5
:01003B0000C4
:01003C0000C3
:01003D0000C2
:01003E0001C0
:01003F0000C0
:0100400001BE
:0100410001BD
:0100420002BB
:0100430002BA
:0100440002B9
:0100450003B7
:0100460003B6
:0100470003B5
:0100480000B7
:0100490000B6
:01004A0001B4
:01004B0001B3
:01004C0002B1
:01004D0003AF
:01004E0003AE
:01004F0000B0
:0100500000AF
:0100510001AD
:0100520002AB
:0100530003A9
:0100540003A8
:0100550000AA
:0100560001A8
:0100570002A6
:0100580002A5
:0100590003A3
:01005A0000A5
:01005B0001A3
:01005C0002A1
:01005D00039F
:01005E0000A1
:01005F0000A0
:01006000019E
:01006100029C
:01006200039A
:01006300019B
:010064000299
:010065000397
:010066000099
:010067000197
:010068000295
:010069000096
:01006A000095
:01006B000292
:01006C000390
:01006D000191
:01006E000190
:01006F00038D
:01007000038C
:01007100018D
:01007200028B
:01007300008C
:010074000289
:010075000288
:010076000089
:010077000187
:010078000384
:010079000086
:01007A000283
:01007B000381
:01007C000182
:01007D000280
:01007E000081
:01007F00017F
:01008000037C
:01008100007E
:01008200027B
:01008300007C
:01008400017A
:010085000377
:010086000079
:010087000276
:010088000077
:010089000175
:01008A000372
:01008B000173
:01008C000370
:01008D000072
:01008E00026F
:01008F00036D
:01009000016E
:01009100036B
:01009200016C
:01009300026A
:01009400006B
:010095000367
:010096000168
:010097000266
:010098000067
:010099000264
:01009A000065
:01009B000262
:01009C000360
:01009D000260
:01009E00035E
:01009F00015F
:0100A000035C
:0100A100015D
:0100A200005D
:0100A300025A
:0100A4000358
:0100A5000159
:0100A6000059
:0100A7000157
:0100A8000057
:0100A9000254
:0100AA000055
:0100AB000252
:0100AC000053
:0100AD00034F
:0100AE000051
:0100AF00024E
:0100B000014E
:0100B100034B
:0100B200014C
:0100B300004C
:0100B4000249
:0100B500004A
:0100B6000247
:0100B7000048
:0100B8000344
:0100B9000046
:0100BA000342
:0100BB000143
:0100BC000340
:0100BD000240
:0100BE000041
:0100BF00033D
:0100C000013E
:0100C100003E
:0100C200013C
:0100C300003C
:0100C400013A
:0100C500003A
:0100C6000336
:0100C7000137
:0100C8000334
:0100C9000234
:0100CA000035
:0100CB000331
:0100CC000132
:0100CD00032F
:0100CE00022F
:0100CF00012F
:0100D000032C
:0100D100022C
:0100D200002D
:0100D3000329
:0100D400012A
:0100D5000327
:0100D6000227
:0100D7000028
:0100D8000324
:0100D9000125
:0100DA000025
:0100DB000321
:0100DC000221
:0100DD000022
:0100DE00021F
:0100DF00011F
:0100E000031C
:0100E100021C
:0100E200011C
:0100E3000319
:0100E4000219
:0100E500001A
:0100E6000316
:0100E7000216
:0100E8000116
:0100E9000313
:0100EA000213
:0100EB000113
:0100EC000013
:0100ED000210
:0100EE000110
:0100EF000010
:0100F000020D
:0100F100010D
:0100F200000D
:0100F300020A
:0100F400010A
:0100F500000A
:0100F6000207
:0100F7000107
:0100F8000007
:0100F9000303
:0100FA000203
:0100FB000103
:0100FC000003
:0100FD000200
:0100FE000100
:0100FF000000
:0101000003FB
:0101010001FC
:0101020000FC
:0101030003F8
:0101040002F8
:0101050000F9
:0101060003F5
:0101070002F5
:0101080001F5
:0101090000F5
:01010A0003F1
:01010B0002F1
:01010C0001F1
:01010D0000F1
:01010E0003ED
:01010F0001EE
:0101100000EE
:0101110000ED
:0101120002EA
:0101130001EA
:0101140000EA
:0101150002E7
:0101160002E6
:0101170001E6
:0101180000E6
:0101190003E2
:01011A0002E2
:01011B0000E3
:01011C0003DF
:01011D0003DE
:01011E0002DE
:01011F0000DF
:0101200003DB
:0101210003DA
:0101220002DA
:0101230001DA
:0101240000DA
:0101250003D6
:0101260002D6
:0101270001D6
:0101280000D6
:0101290003D2
:01012A0002D2
:01012B0001D2
:01012C0000D2
:01012D0003CE
:01012E0002CE
:01012F0001CE
:0101300000CE
:0101310003CA
:0101320002CA
:0101330001CA
:0101340000CA
:0101350003C6
:0101360002C6
:0101370002C5
:0101380001C5
:0101390003C2
:01013A0003C1
:01013B0002C1
:01013C0002C0
:01013D0000C1
:01013E0003BD
:01013F0003BC
:0101400002BC
:0101410001BC
:0101420000BC
:0101430003B8
:0101440002B8
:0101450002B7
:0101460001B7
:0101470000B7
:0101480003B3
:0101490003B2
:01014A0002B2
:01014B0001B2
:01014C0000B2
:01014D0003AE
:01014E0002AE
:01014F0001AE
:0101500001AD
:0101510000AD
:0101520003A9
:0101530002A9
:0101540002A8
:0101550001A8
:0101560000A8
:0101570003A4
:0101580002A4
:0101590002A3
:01015A0001A3
:01015B0000A3
:01015C00039F
:01015D00039E
:01015E00029E
:01015F00019E
:01016000009E
:01016100039A
:010162000399
:010163000398
:010164000298
:010165000198
:010166000098
:010167000394
:010168000393
:010169000293
:01016A000292
:01016B000192
:01016C000092
:01016D00038E
:01016E00028E
:01016F00028D
:01017000018D
:01017100018C
:010172000389
:010173000388
:010174000288
:010175000188
:010176000088
:010177000087
:010178000086
:010179000382
:01017A000282
:01017B000281
:01017C000181
:01017D000081
:01017E000080
:01017F00037C
:01018000037B
:01018100027B
:01018200017B
:01018300007B
:01018400007A
:010185000376
:010186000276
:010187000275
:010188000175
:010189000174
:01018A000074
:01018B000073
:01018C00036F
:01018D00026F
:01018E00026E
:01018F00026D
:01019000006E
:01019100006D
:010192000369
:010193000368
:010194000268
:010195000168
:010196000068
:010197000067
:010198000066
:010199000362
:01019A000262
:01019B000261
:01019C000260
:01019D000160
:01019E00015F
:01019F00005F
:0101A000035B
:0101A100035A
:0101A200025A
:0101A3000259
:0101A4000159
:0101A5000059
:0101A6000058
:0101A7000354
:0101A8000353
:0101A9000253
:0101AA000252
:0101AB000152
:0101AC000052
:0101AD000051
:0101AE000050
:0101AF00034C
:0101B000034B
:0101B100024B
:0101B200024A
:0101B300014A
:0101B4000149
:0101B5000049
:0101B6000345
:0101B7000344
:0101B8000244
:0101B9000243
:0101BA000242
:0101BB000142
:0101BC000141
:0101BD000041
:0101BE00033D
:0101BF00033C
:0101C000033B
:0101C100023B
:0101C200013B
:0101C300013A
:0101C4000139
:0101C5000039
:0101C6000038
:0101C7000037
:0101C8000333
:0101C9000233
:0101CA000232
:0101CB000231
:0101CC000131
:0101CD000031
:0101CE000030
:0101CF00002F
:0101D000032B
:0101D100032A
:0101D200022A
:0101D3000229
:0101D4000129
:0101D5000128
:0101D6000028
:0101D7000027
:0101D8000026
:0101D9000322
:0101DA000321
:0101DB000221
:0101DC000220
:0101DD000120
:0101DE00011F
:0101DF00011E
:0101E000001E
:0101E100031A
:0101E2000319
:0101E3000318
:0101E4000317
:0101E5000217
:0101E6000216
:0101E7000116
:0101E8000115
:0101E9000015
:0101EA000014
:0101EB000013
:0101EC00030F
:0101ED00020F
:0101EE00020E
:0101EF00020D
:0101F000020C
:0101F100010C
:0101F200010B
:0101F300010A
:0101F400000A
:0101F5000009
:0101F6000305
:0101F7000304
:0101F8000303
:0101F9000302
:0101FA000202
:0101FB000102
:0101FC000101
:0101FD000100
:0101FE0001FF
:0101FF0003FC
:00000001ff
