:020000040000FA
:0100000000FF
:0100010003FB
:0100020003FA
:0100030002FA
:0100040002F9
:0100050001F9
:0100060001F8
:0100070000F8
:0100080000F7
:0100090003F3
:01000A0003F2
:01000B0002F2
:01000C0002F1
:01000D0001F1
:01000E0001F0
:01000F0000F0
:0100100000EF
:0100110003EB
:0100120003EA
:0100130002EA
:0100140002E9
:0100150001E9
:0100160001E8
:0100170000E8
:0100180000E7
:0100190000E6
:01001A0003E2
:01001B0003E1
:01001C0002E1
:01001D0002E0
:01001E0001E0
:01001F0001DF
:0100200000DF
:0100210000DE
:0100220000DD
:0100230003D9
:0100240003D8
:0100250002D8
:0100260002D7
:0100270001D7
:0100280001D6
:0100290001D5
:01002A0000D5
:01002B0000D4
:01002C0003D0
:01002D0003CF
:01002E0002CF
:01002F0002CE
:0100300002CD
:0100310001CD
:0100320001CC
:0100330000CC
:0100340000CB
:0100350003C7
:0100360003C6
:0100370003C5
:0100380002C5
:0100390002C4
:01003A0001C4
:01003B0001C3
:01003C0001C2
:01003D0000C2
:01003E0000C1
:01003F0003BD
:0100400003BC
:0100410003BB
:0100420002BB
:0100430002BA
:0100440001BA
:0100450001B9
:0100460001B8
:0100470000B8
:0100480000B7
:0100490000B6
:01004A0003B2
:01004B0003B1
:01004C0002B1
:01004D0002B0
:01004E0002AF
:01004F0001AF
:0100500001AE
:0100510001AD
:0100520000AD
:0100530000AC
:0100540003A8
:0100550003A7
:0100560003A6
:0100570002A6
:0100580002A5
:0100590002A4
:01005A0001A4
:01005B0001A3
:01005C0001A2
:01005D0000A2
:01005E0000A1
:01005F00039D
:01006000039C
:01006100039B
:01006200029B
:01006300029A
:010064000299
:010065000199
:010066000198
:010067000197
:010068000097
:010069000096
:01006A000095
:01006B000391
:01006C000390
:01006D00038F
:01006E00028F
:01006F00028E
:01007000028D
:01007100018D
:01007200018C
:01007300018B
:01007400008B
:01007500008A
:010076000089
:010077000385
:010078000384
:010079000383
:01007A000283
:01007B000282
:01007C000281
:01007D000181
:01007E000180
:01007F00017F
:01008000007F
:01008100007E
:01008200007D
:010083000379
:010084000378
:010085000377
:010086000277
:010087000276
:010088000275
:010089000175
:01008A000174
:01008B000173
:01008C000172
:01008D000072
:01008E000071
:01008F000070
:01009000036C
:01009100036B
:01009200036A
:01009300026A
:010094000269
:010095000268
:010096000168
:010097000167
:010098000166
:010099000165
:01009A000065
:01009B000064
:01009C000063
:01009D00035F
:01009E00035E
:01009F00035D
:0100A000035C
:0100A100025C
:0100A200025B
:0100A300025A
:0100A400015A
:0100A5000159
:0100A6000158
:0100A7000157
:0100A8000057
:0100A9000056
:0100AA000055
:0100AB000351
:0100AC000350
:0100AD00034F
:0100AE00034E
:0100AF00024E
:0100B000024D
:0100B100024C
:0100B200014C
:0100B300014B
:0100B400014A
:0100B5000149
:0100B6000049
:0100B7000048
:0100B8000047
:0100B9000046
:0100BA000342
:0100BB000341
:0100BC000340
:0100BD000240
:0100BE00023F
:0100BF00023E
:0100C000023D
:0100C100013D
:0100C200013C
:0100C300013B
:0100C400013A
:0100C500003A
:0100C6000039
:0100C7000038
:0100C8000037
:0100C9000333
:0100CA000332
:0100CB000331
:0100CC000330
:0100CD000230
:0100CE00022F
:0100CF00022E
:0100D000022D
:0100D100012D
:0100D200012C
:0100D300012B
:0100D400012A
:0100D500002A
:0100D6000029
:0100D7000028
:0100D8000027
:0100D9000323
:0100DA000322
:0100DB000321
:0100DC000320
:0100DD000220
:0100DE00021F
:0100DF00021E
:0100E000021D
:0100E100011D
:0100E200011C
:0100E300011B
:0100E400011A
:0100E500001A
:0100E6000019
:0100E7000018
:0100E8000017
:0100E9000313
:0100EA000312
:0100EB000311
:0100EC000310
:0100ED000210
:0100EE00020F
:0100EF00020E
:0100F000020D
:0100F100020C
:0100F200010C
:0100F300010B
:0100F400010A
:0100F5000109
:0100F6000009
:0100F7000008
:0100F8000007
:0100F9000006
:0100FA000005
:0100FB000301
:0100FC000300
:0100FD0003FF
:0100FE0003FE
:0100FF0002FE
:0101000002FC
:0101010002FB
:0101020002FA
:0101030002F9
:0101040001F9
:0101050001F8
:0101060001F7
:0101070001F6
:0101080000F6
:0101090000F5
:01010A0000F4
:01010B0000F3
:01010C0000F2
:01010D0003EE
:01010E0003ED
:01010F0003EC
:0101100003EB
:0101110002EB
:0101120002EA
:0101130002E9
:0101140002E8
:0101150002E7
:0101160001E7
:0101170001E6
:0101180001E5
:0101190001E4
:01011A0001E3
:01011B0000E3
:01011C0000E2
:01011D0000E1
:01011E0000E0
:01011F0000DF
:0101200003DB
:0101210003DA
:0101220003D9
:0101230003D8
:0101240003D7
:0101250002D7
:0101260002D6
:0101270002D5
:0101280002D4
:0101290002D3
:01012A0001D3
:01012B0001D2
:01012C0001D1
:01012D0001D0
:01012E0001CF
:01012F0000CF
:0101300000CE
:0101310000CD
:0101320000CC
:0101330000CB
:0101340003C7
:0101350003C6
:0101360003C5
:0101370003C4
:0101380003C3
:0101390002C3
:01013A0002C2
:01013B0002C1
:01013C0002C0
:01013D0002BF
:01013E0001BF
:01013F0001BE
:0101400001BD
:0101410001BC
:0101420001BB
:0101430000BB
:0101440000BA
:0101450000B9
:0101460000B8
:0101470000B7
:0101480000B6
:0101490003B2
:01014A0003B1
:01014B0003B0
:01014C0003AF
:01014D0003AE
:01014E0002AE
:01014F0002AD
:0101500002AC
:0101510002AB
:0101520002AA
:0101530002A9
:0101540001A9
:0101550001A8
:0101560001A7
:0101570001A6
:0101580001A5
:0101590000A5
:01015A0000A4
:01015B0000A3
:01015C0000A2
:01015D0000A1
:01015E0000A0
:01015F00039C
:01016000039B
:01016100039A
:010162000399
:010163000398
:010164000397
:010165000297
:010166000296
:010167000295
:010168000294
:010169000293
:01016A000193
:01016B000192
:01016C000191
:01016D000190
:01016E00018F
:01016F00018E
:01017000008E
:01017100008D
:01017200008C
:01017300008B
:01017400008A
:010175000089
:010176000385
:010177000384
:010178000383
:010179000382
:01017A000381
:01017B000380
:01017C000280
:01017D00027F
:01017E00027E
:01017F00027D
:01018000027C
:01018100027B
:01018200017B
:01018300017A
:010184000179
:010185000178
:010186000177
:010187000176
:010188000076
:010189000075
:01018A000074
:01018B000073
:01018C000072
:01018D000071
:01018E000070
:01018F00036C
:01019000036B
:01019100036A
:010192000369
:010193000368
:010194000367
:010195000267
:010196000266
:010197000265
:010198000264
:010199000263
:01019A000262
:01019B000261
:01019C000161
:01019D000160
:01019E00015F
:01019F00015E
:0101A000015D
:0101A100015C
:0101A200005C
:0101A300005B
:0101A400005A
:0101A5000059
:0101A6000058
:0101A7000057
:0101A8000056
:0101A9000352
:0101AA000351
:0101AB000350
:0101AC00034F
:0101AD00034E
:0101AE00034D
:0101AF00024D
:0101B000024C
:0101B100024B
:0101B200024A
:0101B3000249
:0101B4000248
:0101B5000247
:0101B6000147
:0101B7000146
:0101B8000145
:0101B9000144
:0101BA000143
:0101BB000142
:0101BC000141
:0101BD000041
:0101BE000040
:0101BF00003F
:0101C000003E
:0101C100003D
:0101C200003C
:0101C300003B
:0101C4000337
:0101C5000336
:0101C6000335
:0101C7000334
:0101C8000333
:0101C9000332
:0101CA000331
:0101CB000231
:0101CC000230
:0101CD00022F
:0101CE00022E
:0101CF00022D
:0101D000022C
:0101D100022B
:0101D200022A
:0101D300012A
:0101D4000129
:0101D5000128
:0101D6000127
:0101D7000126
:0101D8000125
:0101D9000124
:0101DA000024
:0101DB000023
:0101DC000022
:0101DD000021
:0101DE000020
:0101DF00001F
:0101E000001E
:0101E100031A
:0101E2000319
:0101E3000318
:0101E4000317
:0101E5000316
:0101E6000315
:0101E7000314
:0101E8000313
:0101E9000213
:0101EA000212
:0101EB000211
:0101EC000210
:0101ED00020F
:0101EE00020E
:0101EF00020D
:0101F000020C
:0101F100010C
:0101F200010B
:0101F300010A
:0101F4000109
:0101F5000108
:0101F6000107
:0101F7000106
:0101F8000105
:0101F9000005
:0101FA000004
:0101FB000003
:0101FC000002
:0101FD000001
:0101FE000000
:0101FF0000FF
:00000001ff
