:020000040000FA
:0100000000FF
:0100010003FB
:0100020003FA
:0100030003F9
:0100040002F9
:0100050001F9
:0100060000F9
:0100070003F5
:0100080002F5
:0100090000F6
:01000A0002F3
:01000B0000F4
:01000C0002F1
:01000D0000F2
:01000E0002EF
:01000F0003ED
:0100100000EF
:0100110002EC
:0100120003EA
:0100130003E9
:0100140000EB
:0100150000EA
:0100160001E8
:0100170001E7
:0100180001E6
:0100190001E5
:01001A0000E5
:01001B0000E4
:01001C0003E0
:01001D0002E0
:01001E0001E0
:01001F0000E0
:0100200003DC
:0100210002DC
:0100220000DD
:0100230002DA
:0100240000DB
:0100250003D7
:0100260000D9
:0100270002D6
:0100280000D7
:0100290001D5
:01002A0003D2
:01002B0000D4
:01002C0001D2
:01002D0002D0
:01002E0002CF
:01002F0003CD
:0100300000CF
:0100310000CE
:0100320000CD
:0100330000CC
:0100340000CB
:0100350000CA
:0100360000C9
:0100370000C8
:0100380003C4
:0100390003C3
:01003A0002C3
:01003B0001C3
:01003C0000C3
:01003D0003BF
:01003E0002BF
:01003F0000C0
:0100400003BC
:0100410001BD
:0100420000BD
:0100430002BA
:0100440000BB
:0100450002B8
:0100460000B9
:0100470001B7
:0100480003B4
:0100490000B6
:01004A0002B3
:01004B0003B1
:01004C0000B3
:01004D0001B1
:01004E0002AF
:01004F0003AD
:0100500000AF
:0100510001AD
:0100520001AC
:0100530002AA
:0100540002A9
:0100550002A8
:0100560002A7
:0100570002A6
:0100580002A5
:0100590002A4
:01005A0002A3
:01005B0001A3
:01005C0001A2
:01005D0000A2
:01005E0000A1
:01005F00039D
:01006000029D
:01006100019D
:01006200009D
:010063000399
:010064000299
:010065000199
:010066000396
:010067000296
:010068000097
:010069000294
:01006A000194
:01006B000391
:01006C000192
:01006D00038F
:01006E000190
:01006F00038D
:01007000008F
:01007100028C
:01007200008D
:01007300018B
:010074000289
:01007500008A
:010076000188
:010077000286
:010078000384
:010079000086
:01007A000184
:01007B000282
:01007C000281
:01007D00037F
:01007E000081
:01007F000080
:01008000017E
:01008100017D
:01008200017C
:01008300017B
:010084000279
:010085000278
:010086000277
:010087000177
:010088000176
:010089000175
:01008A000174
:01008B000074
:01008C000073
:01008D00036F
:01008E00036E
:01008F00026E
:01009000016E
:01009100006E
:01009200006D
:010093000369
:010094000269
:01009500006A
:010096000366
:010097000266
:010098000166
:010099000363
:01009A000263
:01009B000064
:01009C000360
:01009D000161
:01009E000061
:01009F00025E
:0100A000005F
:0100A100025C
:0100A200005D
:0100A300025A
:0100A400005B
:0100A5000258
:0100A6000059
:0100A7000256
:0100A8000354
:0100A9000155
:0100AA000253
:0100AB000054
:0100AC000152
:0100AD00034F
:0100AE000051
:0100AF00014F
:0100B000034C
:0100B100004E
:0100B200014C
:0100B300024A
:0100B4000348
:0100B500004A
:0100B6000148
:0100B7000246
:0100B8000245
:0100B9000343
:0100BA000045
:0100BB000044
:0100BC000142
:0100BD000141
:0100BE00023F
:0100BF00023E
:0100C000033C
:0100C100033B
:0100C200033A
:0100C3000339
:0100C4000338
:0100C5000337
:0100C6000336
:0100C7000335
:0100C8000334
:0100C9000333
:0100CA000332
:0100CB000331
:0100CC000330
:0100CD000230
:0100CE00022F
:0100CF00012F
:0100D000012E
:0100D100002E
:0100D200002D
:0100D3000329
:0100D4000328
:0100D5000228
:0100D6000128
:0100D7000028
:0100D8000027
:0100D9000323
:0100DA000223
:0100DB000123
:0100DC000023
:0100DD00031F
:0100DE00021F
:0100DF000020
:0100E000031C
:0100E100021C
:0100E200011C
:0100E3000319
:0100E4000219
:0100E500001A
:0100E6000316
:0100E7000117
:0100E8000017
:0100E9000214
:0100EA000114
:0100EB000311
:0100EC000112
:0100ED000012
:0100EE00020F
:0100EF000010
:0100F000020D
:0100F100000E
:0100F200020B
:0100F300000C
:0100F4000209
:0100F500000A
:0100F6000207
:0100F7000008
:0100F8000205
:0100F9000303
:0100FA000104
:0100FB000301
:0100FC000003
:0100FD000200
:0100FE000001
:0100FF0001FF
:0101000003FB
:0101010000FD
:0101020002FA
:0101030003F8
:0101040000FA
:0101050002F7
:0101060003F5
:0101070000F7
:0101080001F5
:0101090002F3
:01010A0000F4
:01010B0001F2
:01010C0002F0
:01010D0003EE
:01010E0000F0
:01010F0001EE
:0101100002EC
:0101110003EA
:0101120003E9
:0101130000EB
:0101140001E9
:0101150002E7
:0101160003E5
:0101170003E4
:0101180000E6
:0101190001E4
:01011A0001E3
:01011B0002E1
:01011C0002E0
:01011D0003DE
:01011E0003DD
:01011F0000DF
:0101200000DE
:0101210000DD
:0101220001DB
:0101230001DA
:0101240001D9
:0101250002D7
:0101260002D6
:0101270002D5
:0101280002D4
:0101290002D3
:01012A0002D2
:01012B0002D1
:01012C0003CF
:01012D0003CE
:01012E0002CE
:01012F0002CD
:0101300002CC
:0101310002CB
:0101320002CA
:0101330002C9
:0101340002C8
:0101350002C7
:0101360001C7
:0101370001C6
:0101380001C5
:0101390000C5
:01013A0000C4
:01013B0000C3
:01013C0003BF
:01013D0003BE
:01013E0002BE
:01013F0002BD
:0101400001BD
:0101410001BC
:0101420000BC
:0101430003B8
:0101440003B7
:0101450002B7
:0101460001B7
:0101470001B6
:0101480000B6
:0101490003B2
:01014A0002B2
:01014B0002B1
:01014C0001B1
:01014D0000B1
:01014E0003AD
:01014F0002AD
:0101500001AD
:0101510000AD
:0101520003A9
:0101530002A9
:0101540001A9
:0101550000A9
:0101560003A5
:0101570002A5
:0101580001A5
:0101590000A5
:01015A0002A2
:01015B0001A2
:01015C0000A2
:01015D00039E
:01015E00019F
:01015F00009F
:01016000039B
:01016100019C
:01016200009C
:010163000398
:010164000199
:010165000099
:010166000296
:010167000196
:010168000393
:010169000293
:01016A000094
:01016B000390
:01016C000191
:01016D00038E
:01016E00028E
:01016F00008F
:01017000028C
:01017100018C
:010172000389
:01017300018A
:010174000387
:010175000287
:010176000088
:010177000285
:010178000086
:010179000283
:01017A000084
:01017B000281
:01017C000181
:01017D00037E
:01017E00017F
:01017F00037C
:01018000017D
:01018100037A
:01018200007C
:010183000279
:01018400007A
:010185000277
:010186000078
:010187000275
:010188000076
:010189000174
:01018A000371
:01018B000172
:01018C00036F
:01018D000170
:01018E00026E
:01018F00006F
:01019000026C
:01019100036A
:01019200016B
:010193000269
:01019400006A
:010195000267
:010196000365
:010197000166
:010198000264
:010199000065
:01019A000163
:01019B000360
:01019C000062
:01019D00025F
:01019E00035D
:01019F00005F
:0101A000025C
:0101A100035A
:0101A200015B
:0101A3000259
:0101A4000357
:0101A5000158
:0101A6000256
:0101A7000354
:0101A8000056
:0101A9000253
:0101AA000351
:0101AB000053
:0101AC000151
:0101AD00024F
:0101AE00034D
:0101AF00014E
:0101B000024C
:0101B100034A
:0101B200004C
:0101B300014A
:0101B4000248
:0101B5000346
:0101B6000048
:0101B7000146
:0101B8000244
:0101B9000342
:0101BA000044
:0101BB000142
:0101BC000240
:0101BD00033E
:0101BE000040
:0101BF00003F
:0101C000013D
:0101C100023B
:0101C2000339
:0101C300003B
:0101C4000139
:0101C5000138
:0101C6000236
:0101C7000334
:0101C8000036
:0101C9000035
:0101CA000133
:0101CB000231
:0101CC00032F
:0101CD00032E
:0101CE000030
:0101CF00002F
:0101D000012D
:0101D100022B
:0101D200022A
:0101D3000328
:0101D4000327
:0101D5000029
:0101D6000127
:0101D7000126
:0101D8000224
:0101D9000223
:0101DA000321
:0101DB000320
:0101DC000022
:0101DD000021
:0101DE000020
:0101DF00011E
:0101E000011D
:0101E100021B
:0101E200021A
:0101E3000219
:0101E4000317
:0101E5000316
:0101E6000315
:0101E7000017
:0101E8000016
:0101E9000015
:0101EA000113
:0101EB000112
:0101EC000111
:0101ED000110
:0101EE00020E
:0101EF00020D
:0101F000020C
:0101F100020B
:0101F200020A
:0101F3000209
:0101F4000307
:0101F5000306
:0101F6000305
:0101F7000304
:0101F8000303
:0101F9000302
:0101FA000301
:0101FB000300
:0101FC0003FF
:0101FD0003FE
:0101FE0003FD
:0101FF0000FF
:00000001ff
