:020000040000FA
:0100000000FF
:0100010000FE
:0100020000FD
:0100030000FC
:0100040000FB
:0100050000FA
:0100060000F9
:0100070000F8
:0100080000F7
:0100090001F5
:01000A0001F4
:01000B0001F3
:01000C0002F1
:01000D0002F0
:01000E0002EF
:01000F0003ED
:0100100003EC
:0100110000EE
:0100120000ED
:0100130001EB
:0100140002E9
:0100150002E8
:0100160003E6
:0100170003E5
:0100180000E7
:0100190001E5
:01001A0002E3
:01001B0002E2
:01001C0003E0
:01001D0000E2
:01001E0001E0
:01001F0002DE
:0100200003DC
:0100210003DB
:0100220000DD
:0100230001DB
:0100240002D9
:0100250003D7
:0100260001D8
:0100270002D6
:0100280003D4
:0100290000D6
:01002A0001D4
:01002B0002D2
:01002C0003D0
:01002D0001D1
:01002E0002CF
:01002F0003CD
:0100300000CF
:0100310002CC
:0100320003CA
:0100330000CC
:0100340002C9
:0100350003C7
:0100360001C8
:0100370002C6
:0100380000C7
:0100390001C5
:01003A0003C2
:01003B0000C4
:01003C0002C1
:01003D0003BF
:01003E0001C0
:01003F0003BD
:0100400000BF
:0100410002BC
:0100420000BD
:0100430002BA
:0100440003B8
:0100450001B9
:0100460003B6
:0100470001B7
:0100480003B4
:0100490000B6
:01004A0002B3
:01004B0000B4
:01004C0002B1
:01004D0000B2
:01004E0002AF
:01004F0000B0
:0100500002AD
:0100510000AE
:0100520002AB
:0100530000AC
:0100540002A9
:0100550000AA
:0100560002A7
:0100570001A7
:0100580003A4
:0100590001A5
:01005A0003A2
:01005B0001A3
:01005C0000A3
:01005D0002A0
:01005E0000A1
:01005F00029E
:01006000019E
:01006100039B
:01006200019C
:01006300009C
:010064000299
:010065000199
:010066000396
:010067000296
:010068000097
:010069000294
:01006A000194
:01006B000391
:01006C000291
:01006D000191
:01006E00038E
:01006F00028E
:01007000008F
:01007100038B
:01007200028B
:01007300008C
:010074000388
:010075000288
:010076000089
:010077000385
:010078000285
:010079000185
:01007A000382
:01007B000282
:01007C000182
:01007D000082
:01007E00037E
:01007F00017F
:01008000007F
:01008100037B
:01008200027B
:01008300017B
:01008400007B
:010085000377
:010086000277
:010087000177
:010088000077
:010089000373
:01008A000273
:01008B000173
:01008C000073
:01008D00036F
:01008E00026F
:01008F00016F
:01009000006F
:01009100006E
:01009200036A
:01009300026A
:01009400016A
:01009500006A
:010096000366
:010097000365
:010098000265
:010099000165
:01009A000065
:01009B000064
:01009C000360
:01009D000260
:01009E00025F
:01009F00015F
:0100A000005F
:0100A100005E
:0100A200035A
:0100A300025A
:0100A4000259
:0100A5000159
:0100A6000158
:0100A7000058
:0100A8000057
:0100A9000353
:0100AA000352
:0100AB000252
:0100AC000251
:0100AD000151
:0100AE000150
:0100AF000050
:0100B000004F
:0100B100034B
:0100B200034A
:0100B300024A
:0100B4000249
:0100B5000248
:0100B6000148
:0100B7000147
:0100B8000146
:0100B9000046
:0100BA000045
:0100BB000044
:0100BC000340
:0100BD00033F
:0100BE00033E
:0100BF00033D
:0100C000023D
:0100C100023C
:0100C200023B
:0100C300023A
:0100C4000239
:0100C5000139
:0100C6000138
:0100C7000137
:0100C8000136
:0100C9000135
:0100CA000134
:0100CB000133
:0100CC000033
:0100CD000032
:0100CE000031
:0100CF000030
:0100D000002F
:0100D100002E
:0100D200002D
:0100D300002C
:0100D400002B
:0100D500002A
:0100D6000029
:0100D7000028
:0100D8000027
:0100D9000026
:0100DA000025
:0100DB000024
:0100DC000023
:0100DD000121
:0100DE000120
:0100DF00011F
:0100E000011E
:0100E100011D
:0100E200011C
:0100E300011B
:0100E400011A
:0100E5000218
:0100E6000217
:0100E7000216
:0100E8000215
:0100E9000214
:0100EA000312
:0100EB000311
:0100EC000310
:0100ED00030F
:0100EE000011
:0100EF000010
:0100F000000F
:0100F100010D
:0100F200010C
:0100F300010B
:0100F4000209
:0100F5000208
:0100F6000207
:0100F7000305
:0100F8000304
:0100F9000303
:0100FA000005
:0100FB000004
:0100FC000003
:0100FD000101
:0100FE000100
:0100FF0002FE
:0101000002FC
:0101010003FA
:0101020003F9
:0101030000FB
:0101040000FA
:0101050001F8
:0101060001F7
:0101070002F5
:0101080002F4
:0101090003F2
:01010A0003F1
:01010B0000F3
:01010C0000F2
:01010D0001F0
:01010E0001EF
:01010F0002ED
:0101100002EC
:0101110003EA
:0101120000EC
:0101130000EB
:0101140001E9
:0101150001E8
:0101160002E6
:0101170003E4
:0101180003E3
:0101190000E5
:01011A0001E3
:01011B0001E2
:01011C0002E0
:01011D0003DE
:01011E0000E0
:01011F0000DF
:0101200001DD
:0101210002DB
:0101220002DA
:0101230003D8
:0101240000DA
:0101250001D8
:0101260001D7
:0101270002D5
:0101280003D3
:0101290000D5
:01012A0001D3
:01012B0001D2
:01012C0002D0
:01012D0003CE
:01012E0000D0
:01012F0001CE
:0101300002CC
:0101310002CB
:0101320003C9
:0101330000CB
:0101340001C9
:0101350002C7
:0101360003C5
:0101370000C7
:0101380001C5
:0101390002C3
:01013A0002C2
:01013B0003C0
:01013C0000C2
:01013D0001C0
:01013E0002BE
:01013F0003BC
:0101400000BE
:0101410001BC
:0101420002BA
:0101430003B8
:0101440000BA
:0101450001B8
:0101460002B6
:0101470003B4
:0101480000B6
:0101490001B4
:01014A0002B2
:01014B0003B0
:01014C0000B2
:01014D0001B0
:01014E0002AE
:01014F0003AC
:0101500001AD
:0101510002AB
:0101520003A9
:0101530000AB
:0101540001A9
:0101550002A7
:0101560003A5
:0101570000A7
:0101580001A5
:0101590003A2
:01015A0000A4
:01015B0001A2
:01015C0002A0
:01015D00039E
:01015E0000A0
:01015F00029D
:01016000039B
:01016100009D
:01016200019B
:010163000299
:01016400009A
:010165000198
:010166000296
:010167000394
:010168000096
:010169000293
:01016A000391
:01016B000093
:01016C000290
:01016D00038E
:01016E000090
:01016F00018E
:01017000038B
:01017100008D
:01017200018B
:010173000388
:01017400008A
:010175000188
:010176000286
:010177000087
:010178000185
:010179000382
:01017A000084
:01017B000182
:01017C00037F
:01017D000081
:01017E00017F
:01017F00037C
:01018000007E
:01018100017C
:010182000379
:01018300007B
:010184000278
:010185000376
:010186000177
:010187000275
:010188000373
:010189000174
:01018A000272
:01018B000073
:01018C000171
:01018D00036E
:01018E000070
:01018F00026D
:01019000036B
:01019100006D
:01019200026A
:010193000368
:010194000169
:010195000267
:010196000068
:010197000166
:010198000363
:010199000164
:01019A000262
:01019B000063
:01019C000161
:01019D00035E
:01019E000060
:01019F00025D
:0101A000035B
:0101A100015C
:0101A2000359
:0101A300005B
:0101A4000258
:0101A5000356
:0101A6000157
:0101A7000255
:0101A8000056
:0101A9000253
:0101AA000351
:0101AB000152
:0101AC00034F
:0101AD000051
:0101AE00024E
:0101AF00034C
:0101B000014D
:0101B100034A
:0101B200004C
:0101B3000249
:0101B400004A
:0101B5000148
:0101B6000345
:0101B7000146
:0101B8000244
:0101B9000045
:0101BA000242
:0101BB000340
:0101BC000141
:0101BD00033E
:0101BE00013F
:0101BF00023D
:0101C000003E
:0101C100023B
:0101C2000339
:0101C300013A
:0101C4000337
:0101C5000138
:0101C6000236
:0101C7000037
:0101C8000234
:0101C9000035
:0101CA000232
:0101CB000330
:0101CC000131
:0101CD00032E
:0101CE00012F
:0101CF00022D
:0101D000002E
:0101D100022B
:0101D200002C
:0101D3000229
:0101D4000327
:0101D5000128
:0101D6000325
:0101D7000126
:0101D8000323
:0101D9000124
:0101DA000222
:0101DB000023
:0101DC000220
:0101DD000021
:0101DE00021E
:0101DF00001F
:0101E000021C
:0101E100031A
:0101E200011B
:0101E3000318
:0101E4000119
:0101E5000316
:0101E6000117
:0101E7000314
:0101E8000115
:0101E9000312
:0101EA000014
:0101EB000211
:0101EC000012
:0101ED00020F
:0101EE000010
:0101EF00020D
:0101F000000E
:0101F100020B
:0101F200000C
:0101F3000209
:0101F400000A
:0101F5000207
:0101F6000008
:0101F7000205
:0101F8000006
:0101F9000203
:0101FA000004
:0101FB000201
:0101FC000002
:0101FD0002FF
:0101FE000000
:0101FF0002FD
:00000001ff
