:020000040000FA
:0100000000FF
:0100010003FB
:0100020003FA
:0100030003F9
:0100040003F8
:0100050003F7
:0100060002F7
:0100070001F7
:0100080000F7
:0100090002F4
:01000A0000F5
:01000B0001F3
:01000C0002F1
:01000D0003EF
:01000E0003EE
:01000F0002EE
:0100100000EF
:0100110002EC
:0100120003EA
:0100130000EC
:0100140003E8
:0100150002E8
:0100160000E9
:0100170001E7
:0100180000E7
:0100190003E3
:01001A0001E4
:01001B0001E3
:01001C0001E2
:01001D0003DF
:01001E0000E1
:01001F0000E0
:0100200003DC
:0100210000DE
:0100220000DD
:0100230002DA
:0100240003D8
:0100250002D8
:0100260000D9
:0100270001D7
:0100280000D7
:0100290001D5
:01002A0001D4
:01002B0002D2
:01002C0003D0
:01002D0001D1
:01002E0002CF
:01002F0001CF
:0100300002CD
:0100310001CD
:0100320002CB
:0100330001CB
:0100340002C9
:0100350002C8
:0100360003C6
:0100370002C6
:0100380003C4
:0100390002C4
:01003A0002C3
:01003B0001C3
:01003C0001C2
:01003D0003BF
:01003E0003BE
:01003F0000C0
:0100400003BC
:0100410000BE
:0100420002BB
:0100430002BA
:0100440003B8
:0100450002B8
:0100460002B7
:0100470000B8
:0100480003B4
:0100490000B6
:01004A0001B4
:01004B0001B3
:01004C0001B2
:01004D0003AF
:01004E0002AF
:01004F0003AD
:0100500000AF
:0100510003AB
:0100520003AA
:0100530000AC
:0100540002A9
:0100550001A9
:0100560001A8
:0100570002A6
:0100580000A7
:0100590000A6
:01005A0000A5
:01005B0001A3
:01005C0003A0
:01005D0001A1
:01005E0001A0
:01005F00029E
:01006000039C
:01006100019D
:01006200009D
:010063000399
:01006400009B
:01006500009A
:010066000297
:010067000098
:010068000394
:010069000393
:01006A000392
:01006B000391
:01006C000093
:01006D000290
:01006E000091
:01006F00038D
:01007000028D
:01007100018D
:01007200018C
:01007300018B
:01007400018A
:010075000288
:010076000089
:010077000187
:010078000384
:010079000185
:01007A000382
:01007B000282
:01007C000083
:01007D00037F
:01007E00027F
:01007F00017F
:01008000007F
:01008100007E
:01008200037A
:01008300027A
:010084000279
:010085000278
:010086000178
:010087000177
:010088000077
:010089000373
:01008A000372
:01008B000272
:01008C000172
:01008D000072
:01008E00036E
:01008F00026E
:01009000006F
:01009100036B
:01009200016C
:010093000369
:01009400006B
:010095000268
:010096000366
:010097000068
:010098000067
:010099000066
:01009A000065
:01009B000361
:01009C000261
:01009D000161
:01009E00035E
:01009F00015F
:0100A000035C
:0100A100035B
:0100A200005D
:0100A300005C
:0100A4000358
:0100A5000258
:0100A6000158
:0100A7000256
:0100A8000057
:0100A9000056
:0100AA000055
:0100AB000054
:0100AC000251
:0100AD000151
:0100AE00024F
:0100AF00034D
:0100B000034C
:0100B100034B
:0100B200014C
:0100B3000349
:0100B400014A
:0100B5000149
:0100B6000148
:0100B7000048
:0100B8000245
:0100B9000343
:0100BA000045
:0100BB000341
:0100BC000241
:0100BD000042
:0100BE000140
:0100BF00013F
:0100C000003F
:0100C100033B
:0100C200003D
:0100C300003C
:0100C400003B
:0100C5000238
:0100C6000039
:0100C7000038
:0100C8000037
:0100C9000234
:0100CA000035
:0100CB000034
:0100CC000330
:0100CD000131
:0100CE00032E
:0100CF00032D
:0100D000022D
:0100D100032B
:0100D200002D
:0100D300002C
:0100D4000229
:0100D5000327
:0100D6000326
:0100D7000226
:0100D8000027
:0100D9000026
:0100DA000322
:0100DB000123
:0100DC000221
:0100DD000121
:0100DE00031E
:0100DF000020
:0100E000001F
:0100E100021C
:0100E200031A
:0100E300021A
:0100E400011A
:0100E5000218
:0100E6000118
:0100E7000315
:0100E8000017
:0100E9000016
:0100EA000213
:0100EB000212
:0100EC000112
:0100ED00030F
:0100EE00030E
:0100EF00020E
:0100F000000F
:0100F100030B
:0100F200020B
:0100F3000309
:0100F4000209
:0100F500000A
:0100F6000009
:0100F7000305
:0100F8000106
:0100F9000006
:0100FA000302
:0100FB000301
:0100FC000201
:0100FD000002
:0100FE0003FE
:0100FF0002FE
:0101000002FC
:0101010001FC
:0101020002FA
:0101030002F9
:0101040000FA
:0101050000F9
:0101060003F5
:0101070000F7
:0101080003F3
:0101090001F4
:01010A0001F3
:01010B0003F0
:01010C0000F2
:01010D0002EF
:01010E0003ED
:01010F0002ED
:0101100000EE
:0101110003EA
:0101120001EB
:0101130001EA
:0101140000EA
:0101150000E9
:0101160003E5
:0101170000E7
:0101180003E3
:0101190000E5
:01011A0003E1
:01011B0001E2
:01011C0000E2
:01011D0002DF
:01011E0002DE
:01011F0000DF
:0101200000DE
:0101210002DB
:0101220003D9
:0101230001DA
:0101240001D9
:0101250000D9
:0101260000D8
:0101270003D4
:0101280000D6
:0101290002D3
:01012A0003D1
:01012B0002D1
:01012C0003CF
:01012D0001D0
:01012E0002CE
:01012F0001CE
:0101300002CC
:0101310000CD
:0101320001CB
:0101330000CB
:0101340000CA
:0101350003C6
:0101360003C5
:0101370002C5
:0101380002C4
:0101390000C5
:01013A0000C4
:01013B0002C1
:01013C0002C0
:01013D0000C1
:01013E0000C0
:01013F0002BD
:0101400001BD
:0101410002BB
:0101420002BA
:0101430003B8
:0101440002B8
:0101450002B7
:0101460001B7
:0101470001B6
:0101480000B6
:0101490000B5
:01014A0001B3
:01014B0001B2
:01014C0002B0
:01014D0002AF
:01014E0003AD
:01014F0001AE
:0101500002AC
:0101510000AD
:0101520000AC
:0101530002A9
:0101540002A8
:0101550003A6
:0101560002A6
:0101570003A4
:0101580001A5
:0101590001A4
:01015A0003A1
:01015B0003A0
:01015C0000A2
:01015D00039E
:01015E0000A0
:01015F00029D
:01016000029C
:01016100009D
:010162000399
:01016300009B
:010164000298
:010165000396
:010166000197
:010167000097
:010168000195
:010169000095
:01016A000094
:01016B000291
:01016C000290
:01016D00038E
:01016E00028E
:01016F00028D
:01017000008E
:01017100008D
:01017200018B
:010173000388
:01017400008A
:010175000188
:010176000187
:010177000186
:010178000086
:010179000085
:01017A000183
:01017B000083
:01017C000181
:01017D00037E
:01017E00027E
:01017F00037C
:01018000027C
:01018100027B
:010182000379
:010183000279
:010184000377
:010185000178
:010186000078
:010187000176
:010188000373
:010189000372
:01018A000074
:01018B000370
:01018C00036F
:01018D000170
:01018E000070
:01018F00006F
:01019000026C
:01019100016C
:01019200026A
:01019300006B
:010194000367
:010195000069
:010196000266
:010197000265
:010198000363
:010199000164
:01019A000163
:01019B000261
:01019C000161
:01019D000061
:01019E00025E
:01019F00005F
:0101A000005E
:0101A100015C
:0101A200005C
:0101A300005B
:0101A4000159
:0101A5000059
:0101A6000058
:0101A7000156
:0101A8000056
:0101A9000352
:0101AA000153
:0101AB000350
:0101AC00034F
:0101AD000051
:0101AE00024E
:0101AF00024D
:0101B000034B
:0101B100014C
:0101B200004C
:0101B300014A
:0101B4000347
:0101B5000247
:0101B6000345
:0101B7000146
:0101B8000046
:0101B9000045
:0101BA000143
:0101BB000043
:0101BC000042
:0101BD000140
:0101BE000040
:0101BF00033C
:0101C000003E
:0101C100023B
:0101C200013B
:0101C3000239
:0101C400003A
:0101C5000237
:0101C6000236
:0101C7000037
:0101C8000234
:0101C9000233
:0101CA000331
:0101CB000132
:0101CC000032
:0101CD000031
:0101CE00022E
:0101CF00002F
:0101D000002E
:0101D100012C
:0101D2000329
:0101D3000328
:0101D4000327
:0101D5000128
:0101D6000325
:0101D7000324
:0101D8000026
:0101D9000223
:0101DA000123
:0101DB000221
:0101DC00031F
:0101DD00021F
:0101DE00011F
:0101DF00021D
:0101E000001E
:0101E100031A
:0101E2000319
:0101E300001B
:0101E4000317
:0101E5000217
:0101E6000216
:0101E7000017
:0101E8000214
:0101E9000213
:0101EA000311
:0101EB000112
:0101EC00030F
:0101ED00030E
:0101EE000010
:0101EF00020D
:0101F000020C
:0101F100020B
:0101F2000309
:0101F300010A
:0101F400000A
:0101F5000108
:0101F6000206
:0101F7000007
:0101F8000006
:0101F9000005
:0101FA000202
:0101FB000003
:0101FC000002
:0101FD000001
:0101FE0002FE
:0101FF0000FF
:00000001ff
