:020000040000FA
:0100000000FF
:0100010002FC
:0100020002FB
:0100030001FB
:0100040003F8
:0100050001F9
:0100060000F9
:0100070001F7
:0100080003F4
:0100090003F3
:01000A0001F4
:01000B0001F3
:01000C0000F3
:01000D0002F0
:01000E0003EE
:01000F0000F0
:0100100000EF
:0100110000EE
:0100120002EB
:0100130000EC
:0100140001EA
:0100150002E8
:0100160000E9
:0100170003E5
:0100180002E5
:0100190003E3
:01001A0001E4
:01001B0002E2
:01001C0002E1
:01001D0003DF
:01001E0003DE
:01001F0003DD
:0100200001DE
:0100210003DB
:0100220000DD
:0100230002DA
:0100240003D8
:0100250000DA
:0100260003D6
:0100270003D5
:0100280002D5
:0100290001D5
:01002A0000D5
:01002B0001D3
:01002C0001D2
:01002D0001D1
:01002E0001D0
:01002F0003CD
:0100300002CD
:0100310000CE
:0100320002CB
:0100330002CA
:0100340002C9
:0100350000CA
:0100360002C7
:0100370003C5
:0100380001C6
:0100390001C5
:01003A0002C3
:01003B0001C3
:01003C0002C1
:01003D0002C0
:01003E0000C1
:01003F0003BD
:0100400002BD
:0100410003BB
:0100420001BC
:0100430001BB
:0100440001BA
:0100450002B8
:0100460000B9
:0100470002B6
:0100480001B6
:0100490003B3
:01004A0001B4
:01004B0003B1
:01004C0002B1
:01004D0000B2
:01004E0002AF
:01004F0002AE
:0100500003AC
:0100510000AE
:0100520000AD
:0100530000AC
:0100540003A8
:0100550003A7
:0100560000A9
:0100570001A7
:0100580003A4
:0100590002A4
:01005A0003A2
:01005B0002A2
:01005C0002A1
:01005D0002A0
:01005E00039E
:01005F00029E
:01006000039C
:01006100039B
:01006200039A
:01006300019B
:01006400009B
:010065000298
:010066000297
:010067000197
:010068000295
:010069000096
:01006A000293
:01006B000193
:01006C000390
:01006D000092
:01006E00038E
:01006F00018F
:01007000038C
:01007100038B
:01007200028B
:01007300018B
:01007400008B
:010075000387
:010076000287
:010077000385
:010078000087
:010079000383
:01007A000085
:01007B000282
:01007C000083
:01007D000280
:01007E000180
:01007F00027E
:01008000007F
:01008100037B
:01008200017C
:01008300007C
:01008400017A
:01008500007A
:010086000376
:010087000276
:010088000275
:010089000175
:01008A000174
:01008B000272
:01008C000172
:01008D000171
:01008E000071
:01008F00036D
:01009000026D
:01009100026C
:01009200016C
:010093000369
:010094000368
:01009500006A
:010096000168
:010097000167
:010098000265
:010099000165
:01009A000164
:01009B000064
:01009C000261
:01009D000062
:01009E000160
:01009F00035D
:0100A000035C
:0100A100035B
:0100A200015C
:0100A300025A
:0100A400015A
:0100A5000357
:0100A6000158
:0100A7000355
:0100A8000156
:0100A9000254
:0100AA000253
:0100AB000252
:0100AC000251
:0100AD000052
:0100AE00034E
:0100AF00034D
:0100B000014E
:0100B100004E
:0100B200014C
:0100B300004C
:0100B400014A
:0100B5000347
:0100B6000148
:0100B7000147
:0100B8000146
:0100B9000244
:0100BA000045
:0100BB000143
:0100BC000241
:0100BD000042
:0100BE00023F
:0100BF000040
:0100C000023D
:0100C100003E
:0100C200023B
:0100C300023A
:0100C4000338
:0100C5000238
:0100C6000039
:0100C7000236
:0100C8000334
:0100C9000135
:0100CA000332
:0100CB000232
:0100CC000033
:0100CD00032F
:0100CE00022F
:0100CF00012F
:0100D000022D
:0100D100002E
:0100D200002D
:0100D300002C
:0100D4000229
:0100D5000327
:0100D6000128
:0100D7000325
:0100D8000324
:0100D9000323
:0100DA000223
:0100DB000222
:0100DC000122
:0100DD00031F
:0100DE00031E
:0100DF00021E
:0100E000031C
:0100E100021C
:0100E200001D
:0100E300021A
:0100E4000219
:0100E5000317
:0100E6000118
:0100E7000216
:0100E8000116
:0100E9000214
:0100EA000015
:0100EB000113
:0100EC000211
:0100ED000111
:0100EE00020F
:0100EF000010
:0100F000010E
:0100F100020C
:0100F200010C
:0100F3000309
:0100F4000209
:0100F500000A
:0100F6000207
:0100F7000206
:0100F8000106
:0100F9000105
:0100FA000104
:0100FB000004
:0100FC000003
:0100FD000200
:0100FE000001
:0100FF000000
:0101000000FE
:0101010001FC
:0101020000FC
:0101030001FA
:0101040000FA
:0101050002F7
:0101060001F7
:0101070002F5
:0101080003F3
:0101090001F4
:01010A0000F4
:01010B0000F3
:01010C0001F1
:01010D0001F0
:01010E0001EF
:01010F0002ED
:0101100003EB
:0101110000ED
:0101120002EA
:0101130000EB
:0101140002E8
:0101150003E6
:0101160000E8
:0101170001E6
:0101180001E5
:0101190000E5
:01011A0000E4
:01011B0003E0
:01011C0003DF
:01011D0000E1
:01011E0000E0
:01011F0003DC
:0101200002DC
:0101210000DD
:0101220002DA
:0101230001DA
:0101240000DA
:0101250001D8
:0101260001D7
:0101270000D7
:0101280001D5
:0101290000D5
:01012A0000D4
:01012B0002D1
:01012C0001D1
:01012D0001D0
:01012E0002CE
:01012F0002CD
:0101300001CD
:0101310002CB
:0101320002CA
:0101330002C9
:0101340003C7
:0101350003C6
:0101360002C6
:0101370000C7
:0101380003C3
:0101390003C2
:01013A0000C4
:01013B0002C1
:01013C0000C2
:01013D0003BE
:01013E0003BD
:01013F0000BF
:0101400000BE
:0101410001BC
:0101420001BB
:0101430001BA
:0101440003B7
:0101450001B8
:0101460001B7
:0101470001B6
:0101480002B4
:0101490000B5
:01014A0000B4
:01014B0001B2
:01014C0001B1
:01014D0000B1
:01014E0002AE
:01014F0002AD
:0101500000AE
:0101510002AB
:0101520002AA
:0101530003A8
:0101540000AA
:0101550001A8
:0101560002A6
:0101570001A6
:0101580003A3
:0101590001A4
:01015A0002A2
:01015B0001A2
:01015C00039F
:01015D00029F
:01015E00029E
:01015F00019E
:01016000029C
:01016100039A
:01016200029A
:01016300009B
:010164000199
:010165000099
:010166000197
:010167000394
:010168000195
:010169000392
:01016A000094
:01016B000093
:01016C000191
:01016D00028F
:01016E00028E
:01016F00008F
:01017000038B
:01017100018C
:010172000389
:010173000289
:010174000288
:010175000386
:010176000385
:010177000186
:010178000086
:010179000283
:01017A000381
:01017B000083
:01017C000181
:01017D00027F
:01017E000080
:01017F00037C
:01018000017D
:01018100017C
:01018200017B
:010183000378
:010184000179
:010185000376
:010186000375
:010187000077
:010188000373
:010189000273
:01018A000371
:01018B000073
:01018C00036F
:01018D000170
:01018E00016F
:01018F00006F
:01019000036B
:01019100016C
:010192000369
:010193000269
:01019400006A
:010195000267
:010196000365
:010197000166
:010198000066
:010199000263
:01019A000361
:01019B000360
:01019C000260
:01019D00035E
:01019E000060
:01019F00015E
:0101A000015D
:0101A100005D
:0101A2000359
:0101A300005B
:0101A4000159
:0101A5000356
:0101A6000355
:0101A7000255
:0101A8000056
:0101A9000253
:0101AA000054
:0101AB000152
:0101AC000250
:0101AD00024F
:0101AE00014F
:0101AF00034C
:0101B000014D
:0101B100024B
:0101B200014B
:0101B3000348
:0101B400004A
:0101B5000148
:0101B6000345
:0101B7000047
:0101B8000343
:0101B9000342
:0101BA000044
:0101BB000340
:0101BC000240
:0101BD00023F
:0101BE00023E
:0101BF00013E
:0101C000013D
:0101C100033A
:0101C2000339
:0101C3000239
:0101C4000139
:0101C5000237
:0101C6000137
:0101C7000136
:0101C8000135
:0101C9000332
:0101CA000331
:0101CB000033
:0101CC000131
:0101CD00032E
:0101CE00012F
:0101CF00022D
:0101D000022C
:0101D100012C
:0101D2000329
:0101D300012A
:0101D4000228
:0101D5000029
:0101D6000325
:0101D7000324
:0101D8000125
:0101D9000223
:0101DA000024
:0101DB000320
:0101DC000121
:0101DD00031E
:0101DE00021E
:0101DF00021D
:0101E000001E
:0101E100021B
:0101E200021A
:0101E3000318
:0101E4000119
:0101E5000217
:0101E6000018
:0101E7000314
:0101E8000016
:0101E9000312
:0101EA000113
:0101EB000013
:0101EC000210
:0101ED00030E
:0101EE00030D
:0101EF00030C
:0101F000000E
:0101F100030A
:0101F200020A
:0101F300000B
:0101F4000208
:0101F5000108
:0101F6000305
:0101F7000205
:0101F8000006
:0101F9000005
:0101FA000202
:0101FB000300
:0101FC000200
:0101FD000100
:0101FE000000
:0101FF0003FC
:00000001ff
