:020000040000FA
:0100000001FE
:0100010003FB
:0100020001FC
:0100030003F9
:0100040002F9
:0100050001F9
:0100060002F7
:0100070000F8
:0100080000F7
:0100090000F6
:01000A0003F2
:01000B0003F1
:01000C0000F3
:01000D0003EF
:01000E0003EE
:01000F0003ED
:0100100001EE
:0100110002EC
:0100120001EC
:0100130001EB
:0100140002E9
:0100150000EA
:0100160002E7
:0100170001E7
:0100180003E4
:0100190001E5
:01001A0003E2
:01001B0003E1
:01001C0001E2
:01001D0001E1
:01001E0002DF
:01001F0000E0
:0100200000DF
:0100210003DB
:0100220000DD
:0100230001DB
:0100240003D8
:0100250002D8
:0100260003D6
:0100270000D8
:0100280000D7
:0100290002D4
:01002A0002D3
:01002B0003D1
:01002C0003D0
:01002D0003CF
:01002E0001D0
:01002F0001CF
:0100300003CC
:0100310002CC
:0100320003CA
:0100330003C9
:0100340000CB
:0100350001C9
:0100360003C6
:0100370000C8
:0100380001C6
:0100390002C4
:01003A0000C5
:01003B0001C3
:01003C0003C0
:01003D0002C0
:01003E0002BF
:01003F0003BD
:0100400003BC
:0100410001BD
:0100420001BC
:0100430001BB
:0100440001BA
:0100450003B7
:0100460001B8
:0100470002B6
:0100480002B5
:0100490003B3
:01004A0000B5
:01004B0003B1
:01004C0001B2
:01004D0000B2
:01004E0003AE
:01004F0001AF
:0100500003AC
:0100510001AD
:0100520002AB
:0100530002AA
:0100540000AB
:0100550003A7
:0100560002A7
:0100570003A5
:0100580003A4
:0100590003A3
:01005A0002A3
:01005B0001A3
:01005C0001A2
:01005D0001A1
:01005E00029F
:01005F00029E
:01006000039C
:01006100039B
:01006200009D
:01006300019B
:010064000299
:010065000397
:010066000099
:010067000296
:010068000196
:010069000096
:01006A000194
:01006B000391
:01006C000093
:01006D000290
:01006E000091
:01006F00018F
:01007000028D
:01007100028C
:01007200008D
:010073000389
:01007400018A
:010075000189
:010076000287
:010077000187
:010078000384
:010079000284
:01007A000085
:01007B000183
:01007C000083
:01007D00037F
:01007E00027F
:01007F00037D
:01008000017E
:01008100017D
:01008200037A
:01008300017B
:01008400017A
:010085000179
:010086000376
:010087000375
:010088000374
:010089000175
:01008A000075
:01008B000173
:01008C000271
:01008D000270
:01008E00026F
:01008F000070
:01009000006F
:01009100036B
:01009200026B
:01009300026A
:010094000368
:01009500006A
:010096000168
:010097000167
:010098000067
:010099000363
:01009A000065
:01009B000361
:01009C000162
:01009D000161
:01009E00035E
:01009F00035D
:0100A000015E
:0100A100005E
:0100A200025B
:0100A300015B
:0100A4000259
:0100A5000159
:0100A6000158
:0100A7000058
:0100A8000156
:0100A9000056
:0100AA000154
:0100AB000153
:0100AC000350
:0100AD000151
:0100AE000150
:0100AF00014F
:0100B000014E
:0100B100014D
:0100B200024B
:0100B3000349
:0100B400014A
:0100B5000149
:0100B6000247
:0100B7000246
:0100B8000146
:0100B9000343
:0100BA000144
:0100BB000044
:0100BC000340
:0100BD00033F
:0100BE00023F
:0100BF00033D
:0100C000033C
:0100C100033B
:0100C200033A
:0100C300013B
:0100C400003B
:0100C5000238
:0100C6000336
:0100C7000137
:0100C8000334
:0100C9000234
:0100CA000035
:0100CB000133
:0100CC000231
:0100CD000032
:0100CE000031
:0100CF00022E
:0100D000002F
:0100D100022C
:0100D200022B
:0100D300002C
:0100D400012A
:0100D5000327
:0100D6000227
:0100D7000325
:0100D8000027
:0100D9000125
:0100DA000025
:0100DB000123
:0100DC000221
:0100DD000022
:0100DE00031E
:0100DF00021E
:0100E000011E
:0100E100021C
:0100E200011C
:0100E300001C
:0100E400001B
:0100E5000317
:0100E6000118
:0100E7000018
:0100E8000116
:0100E9000115
:0100EA000312
:0100EB000212
:0100EC000112
:0100ED000111
:0100EE00030E
:0100EF000010
:0100F000020D
:0100F100030B
:0100F200000D
:0100F300020A
:0100F4000209
:0100F5000307
:0100F6000108
:0100F7000305
:0100F8000106
:0100F9000105
:0100FA000104
:0100FB000301
:0100FC000300
:0100FD0003FF
:0100FE0002FF
:0100FF000000
:0101000003FB
:0101010001FC
:0101020000FC
:0101030001FA
:0101040001F9
:0101050003F6
:0101060000F8
:0101070002F5
:0101080002F4
:0101090003F2
:01010A0001F3
:01010B0003F0
:01010C0003EF
:01010D0002EF
:01010E0002EE
:01010F0001EE
:0101100000EE
:0101110002EB
:0101120000EC
:0101130000EB
:0101140000EA
:0101150002E7
:0101160003E5
:0101170002E5
:0101180001E5
:0101190000E5
:01011A0003E1
:01011B0003E0
:01011C0002E0
:01011D0003DE
:01011E0002DE
:01011F0002DD
:0101200000DE
:0101210000DD
:0101220003D9
:0101230002D9
:0101240001D9
:0101250000D9
:0101260002D6
:0101270001D6
:0101280003D3
:0101290003D2
:01012A0001D3
:01012B0001D2
:01012C0000D2
:01012D0000D1
:01012E0000D0
:01012F0001CE
:0101300003CB
:0101310002CB
:0101320001CB
:0101330003C8
:0101340000CA
:0101350001C8
:0101360002C6
:0101370002C5
:0101380003C3
:0101390003C2
:01013A0001C3
:01013B0003C0
:01013C0003BF
:01013D0003BE
:01013E0001BF
:01013F0000BF
:0101400002BC
:0101410002BB
:0101420001BB
:0101430002B9
:0101440003B7
:0101450002B7
:0101460002B6
:0101470002B5
:0101480002B4
:0101490003B2
:01014A0002B2
:01014B0001B2
:01014C0003AF
:01014D0002AF
:01014E0000B0
:01014F0001AE
:0101500002AC
:0101510002AB
:0101520003A9
:0101530000AB
:0101540002A8
:0101550001A8
:0101560003A5
:0101570003A4
:0101580002A4
:0101590003A2
:01015A0001A3
:01015B0002A1
:01015C0001A1
:01015D0000A1
:01015E00029E
:01015F00019E
:01016000039B
:01016100009D
:01016200029A
:010163000299
:010164000199
:010165000099
:010166000197
:010167000097
:010168000393
:010169000194
:01016A000094
:01016B000291
:01016C00038F
:01016D000190
:01016E00028E
:01016F00018E
:01017000028C
:01017100018C
:01017200028A
:01017300018A
:010174000288
:010175000188
:010176000187
:010177000087
:010178000185
:010179000283
:01017A000381
:01017B000281
:01017C000181
:01017D00037E
:01017E000080
:01017F00017E
:01018000027C
:01018100017C
:01018200007C
:010183000378
:010184000179
:010185000079
:010186000276
:010187000374
:010188000175
:010189000075
:01018A000173
:01018B000073
:01018C00036F
:01018D000170
:01018E00026E
:01018F00036C
:01019000036B
:01019100036A
:010192000369
:010193000368
:010194000268
:010195000366
:010196000068
:010197000166
:010198000363
:010199000362
:01019A000361
:01019B000162
:01019C000161
:01019D000160
:01019E00015F
:01019F00025D
:0101A000015D
:0101A100005D
:0101A200025A
:0101A300015A
:0101A4000159
:0101A5000059
:0101A6000256
:0101A7000255
:0101A8000155
:0101A9000055
:0101AA000153
:0101AB000350
:0101AC000151
:0101AD00024F
:0101AE00014F
:0101AF00014E
:0101B000004E
:0101B100034A
:0101B2000349
:0101B3000348
:0101B400004A
:0101B5000346
:0101B6000345
:0101B7000047
:0101B8000145
:0101B9000144
:0101BA000242
:0101BB000340
:0101BC000042
:0101BD000041
:0101BE00013F
:0101BF00033C
:0101C000013D
:0101C100023B
:0101C200003C
:0101C3000239
:0101C4000139
:0101C5000336
:0101C6000236
:0101C7000235
:0101C8000333
:0101C9000233
:0101CA000331
:0101CB000231
:0101CC000131
:0101CD00032E
:0101CE000030
:0101CF00022D
:0101D000002E
:0101D100032A
:0101D200002C
:0101D3000328
:0101D4000327
:0101D5000326
:0101D6000226
:0101D7000324
:0101D8000224
:0101D9000124
:0101DA000024
:0101DB000221
:0101DC000121
:0101DD00021F
:0101DE00021E
:0101DF00021D
:0101E000011D
:0101E100011C
:0101E200011B
:0101E3000219
:0101E4000218
:0101E5000019
:0101E6000315
:0101E7000314
:0101E8000214
:0101E9000015
:0101EA000113
:0101EB000211
:0101EC000111
:0101ED00020F
:0101EE00030D
:0101EF00010E
:0101F000010D
:0101F100010C
:0101F200000C
:0101F3000308
:0101F4000307
:0101F5000108
:0101F6000305
:0101F7000106
:0101F8000105
:0101F9000005
:0101FA000004
:0101FB000003
:0101FC000101
:0101FD000001
:0101FE0002FE
:0101FF0001FE
:00000001ff
