:020000040000FA
:0100000000FF
:0100010003FB
:0100020003FA
:0100030003F9
:0100040002F9
:0100050000FA
:0100060001F8
:0100070001F7
:0100080000F7
:0100090001F5
:01000A0001F4
:01000B0003F1
:01000C0003F0
:01000D0001F1
:01000E0000F1
:01000F0001EF
:0100100003EC
:0100110003EB
:0100120003EA
:0100130001EB
:0100140003E8
:0100150002E8
:0100160000E9
:0100170000E8
:0100180003E4
:0100190002E4
:01001A0001E4
:01001B0003E1
:01001C0001E2
:01001D0002E0
:01001E0002DF
:01001F0002DE
:0100200000DF
:0100210000DE
:0100220000DD
:0100230001DB
:0100240001DA
:0100250003D7
:0100260003D6
:0100270001D7
:0100280000D7
:0100290001D5
:01002A0000D5
:01002B0003D1
:01002C0000D3
:01002D0002D0
:01002E0001D0
:01002F0000D0
:0100300000CF
:0100310000CE
:0100320001CC
:0100330002CA
:0100340003C8
:0100350000CA
:0100360000C9
:0100370001C7
:0100380001C6
:0100390000C6
:01003A0003C2
:01003B0001C3
:01003C0002C1
:01003D0001C1
:01003E0000C1
:01003F0002BE
:0100400002BD
:0100410000BE
:0100420001BC
:0100430000BC
:0100440002B9
:0100450001B9
:0100460002B7
:0100470001B7
:0100480002B5
:0100490000B6
:01004A0003B2
:01004B0000B4
:01004C0003B0
:01004D0002B0
:01004E0002AF
:01004F0000B0
:0100500002AD
:0100510000AE
:0100520000AD
:0100530000AC
:0100540000AB
:0100550001A9
:0100560001A8
:0100570002A6
:0100580003A4
:0100590000A6
:01005A0000A5
:01005B0000A4
:01005C0000A3
:01005D00039F
:01005E00029F
:01005F0000A0
:01006000019E
:01006100019D
:01006200019C
:010063000399
:01006400009B
:010065000397
:010066000297
:010067000395
:010068000295
:010069000096
:01006A000095
:01006B000292
:01006C000390
:01006D000191
:01006E00028F
:01006F000090
:01007000008F
:01007100018D
:01007200018C
:01007300018B
:010074000388
:010075000387
:010076000089
:010077000286
:010078000186
:010079000185
:01007A000283
:01007B000084
:01007C000281
:01007D000181
:01007E000180
:01007F00027E
:01008000037C
:01008100007E
:01008200027B
:010083000379
:01008400017A
:01008500007A
:010086000277
:010087000078
:010088000176
:010089000373
:01008A000174
:01008B000272
:01008C000271
:01008D000270
:01008E00026F
:01008F00016F
:01009000036C
:01009100006E
:01009200006D
:01009300006C
:010094000368
:01009500006A
:010096000168
:010097000068
:010098000265
:010099000264
:01009A000164
:01009B000361
:01009C000360
:01009D000260
:01009E00035E
:01009F00025E
:0100A000005F
:0100A100035B
:0100A200015C
:0100A300015B
:0100A4000259
:0100A5000258
:0100A6000059
:0100A7000355
:0100A8000057
:0100A9000254
:0100AA000352
:0100AB000054
:0100AC000350
:0100AD000052
:0100AE00024F
:0100AF00014F
:0100B000024D
:0100B100004E
:0100B200034A
:0100B3000349
:0100B400004B
:0100B5000248
:0100B6000049
:0100B7000048
:0100B8000146
:0100B9000244
:0100BA000045
:0100BB000242
:0100BC000142
:0100BD000141
:0100BE000140
:0100BF00023E
:0100C000023D
:0100C100003E
:0100C200013C
:0100C3000339
:0100C400013A
:0100C5000238
:0100C6000039
:0100C7000236
:0100C8000037
:0100C9000234
:0100CA000035
:0100CB000133
:0100CC000231
:0100CD00032F
:0100CE000031
:0100CF000030
:0100D000002F
:0100D100032B
:0100D200022B
:0100D300002C
:0100D400012A
:0100D5000228
:0100D6000227
:0100D7000127
:0100D8000027
:0100D9000125
:0100DA000223
:0100DB000222
:0100DC000023
:0100DD000220
:0100DE00031E
:0100DF00021E
:0100E000001F
:0100E100011D
:0100E200011C
:0100E3000319
:0100E400001B
:0100E500001A
:0100E6000217
:0100E7000315
:0100E8000215
:0100E9000016
:0100EA000015
:0100EB000212
:0100EC000310
:0100ED000210
:0100EE00030E
:0100EF00020E
:0100F000000F
:0100F100030B
:0100F200010C
:0100F300010B
:0100F4000209
:0100F5000208
:0100F6000306
:0100F7000305
:0100F8000007
:0100F9000303
:0100FA000005
:0100FB000202
:0100FC000201
:0100FD000002
:0100FE0003FE
:0100FF000000
:0101000002FC
:0101010002FB
:0101020003F9
:0101030002F9
:0101040002F8
:0101050003F6
:0101060002F6
:0101070002F5
:0101080003F3
:0101090002F3
:01010A0001F3
:01010B0002F1
:01010C0000F2
:01010D0002EF
:01010E0002EE
:01010F0003EC
:0101100001ED
:0101110003EA
:0101120003E9
:0101130003E8
:0101140001E9
:0101150003E6
:0101160001E7
:0101170001E6
:0101180001E5
:0101190002E3
:01011A0003E1
:01011B0001E2
:01011C0003DF
:01011D0002DF
:01011E0002DE
:01011F0002DD
:0101200002DC
:0101210003DA
:0101220000DC
:0101230001DA
:0101240003D7
:0101250001D8
:0101260003D5
:0101270002D5
:0101280000D6
:0101290003D2
:01012A0002D2
:01012B0001D2
:01012C0000D2
:01012D0003CE
:01012E0002CE
:01012F0001CE
:0101300000CE
:0101310002CB
:0101320001CB
:0101330000CB
:0101340002C8
:0101350000C9
:0101360002C6
:0101370000C7
:0101380001C5
:0101390002C3
:01013A0003C1
:01013B0003C0
:01013C0003BF
:01013D0002BF
:01013E0001BF
:01013F0000BF
:0101400002BC
:0101410003BA
:0101420000BC
:0101430000BB
:0101440000BA
:0101450003B6
:0101460001B7
:0101470003B4
:0101480000B6
:0101490000B5
:01014A0003B1
:01014B0002B1
:01014C0003AF
:01014D0000B1
:01014E0000B0
:01014F0003AC
:0101500001AD
:0101510003AA
:0101520003A9
:0101530002A9
:0101540000AA
:0101550001A8
:0101560001A7
:0101570000A7
:0101580002A4
:0101590003A2
:01015A0002A2
:01015B0000A3
:01015C0002A0
:01015D0001A0
:01015E0000A0
:01015F00019E
:01016000019D
:01016100009D
:01016200019B
:01016300019A
:010164000397
:010165000099
:010166000098
:010167000295
:010168000294
:010169000194
:01016A000391
:01016B000390
:01016C000191
:01016D00028F
:01016E00018F
:01016F00028D
:01017000028C
:01017100008D
:01017200008C
:010173000388
:01017400008A
:010175000386
:010176000088
:010177000384
:010178000185
:010179000184
:01017A000282
:01017B000281
:01017C000082
:01017D000081
:01017E00037D
:01017F00037C
:01018000017D
:01018100017C
:010182000379
:010183000378
:01018400007A
:010185000079
:010186000276
:010187000176
:010188000373
:010189000273
:01018A000371
:01018B000172
:01018C000270
:01018D000071
:01018E000070
:01018F00016E
:01019000006E
:01019100016C
:01019200006C
:01019300006B
:010194000268
:010195000168
:010196000266
:010197000166
:010198000165
:010199000263
:01019A000163
:01019B000261
:01019C000062
:01019D00035E
:01019E000060
:01019F00035C
:0101A000025C
:0101A100035A
:0101A200025A
:0101A300015A
:0101A4000357
:0101A5000158
:0101A6000157
:0101A7000156
:0101A8000056
:0101A9000352
:0101AA000054
:0101AB000251
:0101AC000151
:0101AD000150
:0101AE00024E
:0101AF00014E
:0101B000004E
:0101B100014C
:0101B2000349
:0101B3000249
:0101B4000248
:0101B5000346
:0101B6000147
:0101B7000047
:0101B8000046
:0101B9000144
:0101BA000341
:0101BB000142
:0101BC000141
:0101BD00023F
:0101BE000040
:0101BF00023D
:0101C000023C
:0101C100023B
:0101C2000339
:0101C300013A
:0101C400003A
:0101C5000336
:0101C6000335
:0101C7000136
:0101C8000234
:0101C9000134
:0101CA000034
:0101CB000033
:0101CC000131
:0101CD00022F
:0101CE000030
:0101CF00032C
:0101D000022C
:0101D100022B
:0101D2000329
:0101D300002B
:0101D4000129
:0101D5000029
:0101D6000226
:0101D7000225
:0101D8000224
:0101D9000223
:0101DA000321
:0101DB000023
:0101DC000220
:0101DD000021
:0101DE00031D
:0101DF00021D
:0101E000021C
:0101E100021B
:0101E200021A
:0101E3000318
:0101E400001A
:0101E5000118
:0101E6000315
:0101E7000116
:0101E8000313
:0101E9000213
:0101EA000113
:0101EB000013
:0101EC00030F
:0101ED00030E
:0101EE00030D
:0101EF00030C
:0101F000000E
:0101F100000D
:0101F200010B
:0101F3000209
:0101F4000307
:0101F5000009
:0101F6000107
:0101F7000304
:0101F8000105
:0101F9000203
:0101FA000004
:0101FB000201
:0101FC000002
:0101FD0002FF
:0101FE000000
:0101FF0002FD
:00000001ff
