:020000040000FA
:0100000003FC
:0100010003FB
:0100020003FA
:0100030003F9
:0100040003F8
:0100050003F7
:0100060003F6
:0100070003F5
:0100080003F4
:0100090003F3
:01000A0003F2
:01000B0002F2
:01000C0002F1
:01000D0002F0
:01000E0002EF
:01000F0002EE
:0100100002ED
:0100110002EC
:0100120002EB
:0100130002EA
:0100140002E9
:0100150002E8
:0100160002E7
:0100170001E7
:0100180001E6
:0100190001E5
:01001A0001E4
:01001B0001E3
:01001C0001E2
:01001D0001E1
:01001E0001E0
:01001F0001DF
:0100200001DE
:0100210001DD
:0100220001DC
:0100230001DB
:0100240001DA
:0100250000DA
:0100260000D9
:0100270000D8
:0100280000D7
:0100290000D6
:01002A0000D5
:01002B0000D4
:01002C0000D3
:01002D0000D2
:01002E0000D1
:01002F0000D0
:0100300000CF
:0100310000CE
:0100320000CD
:0100330000CC
:0100340003C8
:0100350003C7
:0100360003C6
:0100370003C5
:0100380003C4
:0100390003C3
:01003A0003C2
:01003B0003C1
:01003C0003C0
:01003D0003BF
:01003E0003BE
:01003F0003BD
:0100400003BC
:0100410003BB
:0100420003BA
:0100430003B9
:0100440002B9
:0100450002B8
:0100460002B7
:0100470002B6
:0100480002B5
:0100490002B4
:01004A0002B3
:01004B0002B2
:01004C0002B1
:01004D0002B0
:01004E0002AF
:01004F0002AE
:0100500002AD
:0100510002AC
:0100520002AB
:0100530002AA
:0100540002A9
:0100550002A8
:0100560002A7
:0100570001A7
:0100580001A6
:0100590001A5
:01005A0001A4
:01005B0001A3
:01005C0001A2
:01005D0001A1
:01005E0001A0
:01005F00019F
:01006000019E
:01006100019D
:01006200019C
:01006300019B
:01006400019A
:010065000199
:010066000198
:010067000197
:010068000196
:010069000195
:01006A000194
:01006B000193
:01006C000093
:01006D000092
:01006E000091
:01006F000090
:01007000008F
:01007100008E
:01007200008D
:01007300008C
:01007400008B
:01007500008A
:010076000089
:010077000088
:010078000087
:010079000086
:01007A000085
:01007B000084
:01007C000083
:01007D000082
:01007E000081
:01007F000080
:01008000007F
:01008100007E
:01008200007D
:01008300007C
:01008400007B
:010085000377
:010086000376
:010087000375
:010088000374
:010089000373
:01008A000372
:01008B000371
:01008C000370
:01008D00036F
:01008E00036E
:01008F00036D
:01009000036C
:01009100036B
:01009200036A
:010093000369
:010094000368
:010095000367
:010096000366
:010097000365
:010098000364
:010099000363
:01009A000362
:01009B000361
:01009C000360
:01009D00035F
:01009E00035E
:01009F00035D
:0100A000035C
:0100A100035B
:0100A200035A
:0100A300025A
:0100A4000259
:0100A5000258
:0100A6000257
:0100A7000256
:0100A8000255
:0100A9000254
:0100AA000253
:0100AB000252
:0100AC000251
:0100AD000250
:0100AE00024F
:0100AF00024E
:0100B000024D
:0100B100024C
:0100B200024B
:0100B300024A
:0100B4000249
:0100B5000248
:0100B6000247
:0100B7000246
:0100B8000245
:0100B9000244
:0100BA000243
:0100BB000242
:0100BC000241
:0100BD000240
:0100BE00023F
:0100BF00023E
:0100C000023D
:0100C100023C
:0100C200023B
:0100C300023A
:0100C4000239
:0100C5000238
:0100C6000138
:0100C7000137
:0100C8000136
:0100C9000135
:0100CA000134
:0100CB000133
:0100CC000132
:0100CD000131
:0100CE000130
:0100CF00012F
:0100D000012E
:0100D100012D
:0100D200012C
:0100D300012B
:0100D400012A
:0100D5000129
:0100D6000128
:0100D7000127
:0100D8000126
:0100D9000125
:0100DA000124
:0100DB000123
:0100DC000122
:0100DD000121
:0100DE000120
:0100DF00011F
:0100E000011E
:0100E100011D
:0100E200011C
:0100E300011B
:0100E400011A
:0100E5000119
:0100E6000118
:0100E7000117
:0100E8000116
:0100E9000115
:0100EA000114
:0100EB000113
:0100EC000112
:0100ED000111
:0100EE000110
:0100EF00010F
:0100F000010E
:0100F100010D
:0100F200010C
:0100F300000C
:0100F400000B
:0100F500000A
:0100F6000009
:0100F7000008
:0100F8000007
:0100F9000006
:0100FA000005
:0100FB000004
:0100FC000003
:0100FD000002
:0100FE000001
:0100FF000000
:0101000000FE
:0101010000FD
:0101020000FC
:0101030000FB
:0101040000FA
:0101050000F9
:0101060000F8
:0101070000F7
:0101080000F6
:0101090000F5
:01010A0000F4
:01010B0000F3
:01010C0000F2
:01010D0000F1
:01010E0000F0
:01010F0000EF
:0101100000EE
:0101110000ED
:0101120000EC
:0101130000EB
:0101140000EA
:0101150000E9
:0101160000E8
:0101170000E7
:0101180000E6
:0101190000E5
:01011A0000E4
:01011B0000E3
:01011C0000E2
:01011D0000E1
:01011E0000E0
:01011F0000DF
:0101200000DE
:0101210000DD
:0101220000DC
:0101230000DB
:0101240000DA
:0101250000D9
:0101260000D8
:0101270000D7
:0101280000D6
:0101290000D5
:01012A0000D4
:01012B0000D3
:01012C0000D2
:01012D0003CE
:01012E0003CD
:01012F0003CC
:0101300003CB
:0101310003CA
:0101320003C9
:0101330003C8
:0101340003C7
:0101350003C6
:0101360003C5
:0101370003C4
:0101380003C3
:0101390003C2
:01013A0003C1
:01013B0003C0
:01013C0003BF
:01013D0003BE
:01013E0003BD
:01013F0003BC
:0101400003BB
:0101410003BA
:0101420003B9
:0101430003B8
:0101440003B7
:0101450003B6
:0101460003B5
:0101470003B4
:0101480003B3
:0101490003B2
:01014A0003B1
:01014B0003B0
:01014C0003AF
:01014D0003AE
:01014E0003AD
:01014F0003AC
:0101500003AB
:0101510003AA
:0101520003A9
:0101530003A8
:0101540003A7
:0101550003A6
:0101560003A5
:0101570003A4
:0101580003A3
:0101590003A2
:01015A0003A1
:01015B0003A0
:01015C00039F
:01015D00039E
:01015E00039D
:01015F00039C
:01016000039B
:01016100039A
:010162000399
:010163000398
:010164000397
:010165000396
:010166000395
:010167000394
:010168000393
:010169000392
:01016A000391
:01016B000390
:01016C00038F
:01016D00038E
:01016E00038D
:01016F00038C
:01017000038B
:01017100038A
:010172000389
:010173000388
:010174000387
:010175000386
:010176000385
:010177000384
:010178000383
:010179000382
:01017A000381
:01017B000380
:01017C00037F
:01017D00037E
:01017E00037D
:01017F00027D
:01018000027C
:01018100027B
:01018200027A
:010183000279
:010184000278
:010185000277
:010186000276
:010187000275
:010188000274
:010189000273
:01018A000272
:01018B000271
:01018C000270
:01018D00026F
:01018E00026E
:01018F00026D
:01019000026C
:01019100026B
:01019200026A
:010193000269
:010194000268
:010195000267
:010196000266
:010197000265
:010198000264
:010199000263
:01019A000262
:01019B000261
:01019C000260
:01019D00025F
:01019E00025E
:01019F00025D
:0101A000025C
:0101A100025B
:0101A200025A
:0101A3000259
:0101A4000258
:0101A5000257
:0101A6000256
:0101A7000255
:0101A8000254
:0101A9000253
:0101AA000252
:0101AB000251
:0101AC000250
:0101AD00024F
:0101AE00024E
:0101AF00024D
:0101B000024C
:0101B100024B
:0101B200024A
:0101B3000249
:0101B4000248
:0101B5000247
:0101B6000246
:0101B7000245
:0101B8000244
:0101B9000243
:0101BA000242
:0101BB000241
:0101BC000240
:0101BD00023F
:0101BE00023E
:0101BF00023D
:0101C000023C
:0101C100023B
:0101C200023A
:0101C3000239
:0101C4000238
:0101C5000237
:0101C6000236
:0101C7000235
:0101C8000234
:0101C9000233
:0101CA000232
:0101CB000231
:0101CC000230
:0101CD00022F
:0101CE00022E
:0101CF00022D
:0101D000022C
:0101D100022B
:0101D200022A
:0101D3000229
:0101D4000228
:0101D5000227
:0101D6000226
:0101D7000225
:0101D8000224
:0101D9000223
:0101DA000222
:0101DB000221
:0101DC000220
:0101DD00021F
:0101DE00021E
:0101DF00021D
:0101E000021C
:0101E100021B
:0101E200021A
:0101E3000219
:0101E4000218
:0101E5000217
:0101E6000216
:0101E7000215
:0101E8000214
:0101E9000213
:0101EA000212
:0101EB000211
:0101EC000210
:0101ED00020F
:0101EE00020E
:0101EF00020D
:0101F000020C
:0101F100020B
:0101F200020A
:0101F3000209
:0101F4000208
:0101F5000207
:0101F6000206
:0101F7000205
:0101F8000204
:0101F9000203
:0101FA000202
:0101FB000201
:0101FC000200
:0101FD0002FF
:0101FE0002FE
:0101FF0001FE
:00000001ff
