:020000040000FA
:0100000000FF
:0100010000FE
:0100020000FD
:0100030000FC
:0100040000FB
:0100050000FA
:0100060000F9
:0100070000F8
:0100080000F7
:0100090000F6
:01000A0000F5
:01000B0000F4
:01000C0000F3
:01000D0000F2
:01000E0000F1
:01000F0000F0
:0100100000EF
:0100110000EE
:0100120000ED
:0100130000EC
:0100140000EB
:0100150000EA
:0100160000E9
:0100170000E8
:0100180000E7
:0100190000E6
:01001A0000E5
:01001B0000E4
:01001C0000E3
:01001D0000E2
:01001E0000E1
:01001F0000E0
:0100200000DF
:0100210000DE
:0100220000DD
:0100230000DC
:0100240001DA
:0100250001D9
:0100260001D8
:0100270001D7
:0100280001D6
:0100290001D5
:01002A0001D4
:01002B0001D3
:01002C0001D2
:01002D0001D1
:01002E0001D0
:01002F0001CF
:0100300001CE
:0100310001CD
:0100320001CC
:0100330001CB
:0100340001CA
:0100350001C9
:0100360001C8
:0100370001C7
:0100380001C6
:0100390001C5
:01003A0001C4
:01003B0001C3
:01003C0001C2
:01003D0001C1
:01003E0001C0
:01003F0001BF
:0100400001BE
:0100410001BD
:0100420001BC
:0100430001BB
:0100440001BA
:0100450001B9
:0100460001B8
:0100470001B7
:0100480001B6
:0100490001B5
:01004A0001B4
:01004B0001B3
:01004C0001B2
:01004D0001B1
:01004E0001B0
:01004F0001AF
:0100500002AD
:0100510002AC
:0100520002AB
:0100530002AA
:0100540002A9
:0100550002A8
:0100560002A7
:0100570002A6
:0100580002A5
:0100590002A4
:01005A0002A3
:01005B0002A2
:01005C0002A1
:01005D0002A0
:01005E00029F
:01005F00029E
:01006000029D
:01006100029C
:01006200029B
:01006300029A
:010064000299
:010065000298
:010066000297
:010067000296
:010068000295
:010069000294
:01006A000293
:01006B000292
:01006C000291
:01006D000290
:01006E00028F
:01006F00028E
:01007000028D
:01007100028C
:01007200028B
:01007300028A
:010074000289
:010075000288
:010076000287
:010077000286
:010078000285
:010079000284
:01007A000283
:01007B000282
:01007C000281
:01007D000280
:01007E00027F
:01007F00027E
:01008000027D
:01008100027C
:01008200027B
:01008300027A
:010084000279
:010085000278
:010086000277
:010087000276
:010088000374
:010089000373
:01008A000372
:01008B000371
:01008C000370
:01008D00036F
:01008E00036E
:01008F00036D
:01009000036C
:01009100036B
:01009200036A
:010093000369
:010094000368
:010095000367
:010096000366
:010097000365
:010098000364
:010099000363
:01009A000362
:01009B000361
:01009C000360
:01009D00035F
:01009E00035E
:01009F00035D
:0100A000035C
:0100A100035B
:0100A200035A
:0100A3000359
:0100A4000358
:0100A5000357
:0100A6000356
:0100A7000355
:0100A8000354
:0100A9000353
:0100AA000352
:0100AB000351
:0100AC000350
:0100AD00034F
:0100AE00034E
:0100AF00034D
:0100B000034C
:0100B100034B
:0100B200034A
:0100B3000349
:0100B4000348
:0100B5000347
:0100B6000346
:0100B7000345
:0100B8000344
:0100B9000343
:0100BA000342
:0100BB000341
:0100BC000340
:0100BD00033F
:0100BE00033E
:0100BF00033D
:0100C000033C
:0100C100033B
:0100C200033A
:0100C3000339
:0100C4000338
:0100C5000337
:0100C6000336
:0100C7000335
:0100C8000334
:0100C9000333
:0100CA000332
:0100CB000331
:0100CC000330
:0100CD00032F
:0100CE00032E
:0100CF00032D
:0100D000032C
:0100D100032B
:0100D200032A
:0100D3000329
:0100D4000328
:0100D500002A
:0100D6000029
:0100D7000028
:0100D8000027
:0100D9000026
:0100DA000025
:0100DB000024
:0100DC000023
:0100DD000022
:0100DE000021
:0100DF000020
:0100E000001F
:0100E100001E
:0100E200001D
:0100E300001C
:0100E400001B
:0100E500001A
:0100E6000019
:0100E7000018
:0100E8000017
:0100E9000016
:0100EA000015
:0100EB000014
:0100EC000013
:0100ED000012
:0100EE000011
:0100EF000010
:0100F000000F
:0100F100000E
:0100F200000D
:0100F300000C
:0100F400000B
:0100F500000A
:0100F6000009
:0100F7000008
:0100F8000007
:0100F9000006
:0100FA000005
:0100FB000004
:0100FC000003
:0100FD000002
:0100FE000001
:0100FF000000
:0101000000FE
:0101010000FD
:0101020000FC
:0101030000FB
:0101040000FA
:0101050000F9
:0101060000F8
:0101070000F7
:0101080000F6
:0101090000F5
:01010A0000F4
:01010B0000F3
:01010C0000F2
:01010D0000F1
:01010E0000F0
:01010F0000EF
:0101100000EE
:0101110000ED
:0101120000EC
:0101130000EB
:0101140000EA
:0101150000E9
:0101160000E8
:0101170000E7
:0101180000E6
:0101190000E5
:01011A0000E4
:01011B0000E3
:01011C0000E2
:01011D0000E1
:01011E0000E0
:01011F0000DF
:0101200000DE
:0101210000DD
:0101220000DC
:0101230000DB
:0101240000DA
:0101250000D9
:0101260000D8
:0101270000D7
:0101280000D6
:0101290000D5
:01012A0000D4
:01012B0000D3
:01012C0000D2
:01012D0000D1
:01012E0000D0
:01012F0000CF
:0101300000CE
:0101310000CD
:0101320000CC
:0101330000CB
:0101340000CA
:0101350000C9
:0101360000C8
:0101370000C7
:0101380000C6
:0101390000C5
:01013A0000C4
:01013B0000C3
:01013C0000C2
:01013D0000C1
:01013E0000C0
:01013F0000BF
:0101400000BE
:0101410000BD
:0101420000BC
:0101430000BB
:0101440000BA
:0101450001B8
:0101460001B7
:0101470001B6
:0101480001B5
:0101490001B4
:01014A0001B3
:01014B0001B2
:01014C0001B1
:01014D0001B0
:01014E0001AF
:01014F0001AE
:0101500001AD
:0101510001AC
:0101520001AB
:0101530001AA
:0101540001A9
:0101550001A8
:0101560001A7
:0101570001A6
:0101580001A5
:0101590001A4
:01015A0001A3
:01015B0001A2
:01015C0001A1
:01015D0001A0
:01015E00019F
:01015F00019E
:01016000019D
:01016100019C
:01016200019B
:01016300019A
:010164000199
:010165000198
:010166000197
:010167000196
:010168000195
:010169000194
:01016A000193
:01016B000192
:01016C000191
:01016D000190
:01016E00018F
:01016F00018E
:01017000018D
:01017100018C
:01017200018B
:01017300018A
:010174000189
:010175000188
:010176000187
:010177000186
:010178000185
:010179000184
:01017A000183
:01017B000182
:01017C000181
:01017D000180
:01017E00017F
:01017F00017E
:01018000017D
:01018100017C
:01018200017B
:01018300017A
:010184000179
:010185000178
:010186000177
:010187000176
:010188000175
:010189000174
:01018A000173
:01018B000172
:01018C000171
:01018D000170
:01018E00016F
:01018F00016E
:01019000016D
:01019100016C
:01019200016B
:01019300016A
:010194000169
:010195000168
:010196000167
:010197000166
:010198000165
:010199000164
:01019A000163
:01019B000162
:01019C000161
:01019D000160
:01019E00015F
:01019F00015E
:0101A000015D
:0101A100015C
:0101A200015B
:0101A300015A
:0101A4000159
:0101A5000158
:0101A6000157
:0101A7000156
:0101A8000155
:0101A9000154
:0101AA000153
:0101AB000152
:0101AC000151
:0101AD000150
:0101AE00014F
:0101AF00014E
:0101B000014D
:0101B100014C
:0101B200014B
:0101B300014A
:0101B4000149
:0101B5000148
:0101B6000147
:0101B7000146
:0101B8000145
:0101B9000144
:0101BA000143
:0101BB000142
:0101BC000141
:0101BD000140
:0101BE00013F
:0101BF00013E
:0101C000013D
:0101C100013C
:0101C200013B
:0101C300013A
:0101C4000139
:0101C5000138
:0101C6000137
:0101C7000136
:0101C8000135
:0101C9000134
:0101CA000133
:0101CB000132
:0101CC000131
:0101CD000130
:0101CE00012F
:0101CF00012E
:0101D000012D
:0101D100012C
:0101D200012B
:0101D300012A
:0101D4000129
:0101D5000128
:0101D6000127
:0101D7000126
:0101D8000125
:0101D9000124
:0101DA000123
:0101DB000122
:0101DC000121
:0101DD000120
:0101DE00011F
:0101DF00011E
:0101E000011D
:0101E100011C
:0101E200011B
:0101E300011A
:0101E4000119
:0101E5000118
:0101E6000117
:0101E7000116
:0101E8000115
:0101E9000114
:0101EA000113
:0101EB000112
:0101EC000111
:0101ED000110
:0101EE00010F
:0101EF00010E
:0101F000010D
:0101F100010C
:0101F200010B
:0101F300010A
:0101F4000109
:0101F5000108
:0101F6000107
:0101F7000106
:0101F8000105
:0101F9000104
:0101FA000103
:0101FB000102
:0101FC000101
:0101FD000100
:0101FE0001FF
:0101FF0001FE
:00000001ff
