:020000040000FA
:0100000000FF
:0100010000FE
:0100020003FA
:0100030000FC
:0100040003F8
:0100050000FA
:0100060003F6
:0100070000F8
:0100080003F4
:0100090003F3
:01000A0002F3
:01000B0002F2
:01000C0000F3
:01000D0000F2
:01000E0002EF
:01000F0002EE
:0100100000EF
:0100110003EB
:0100120000ED
:0100130000EC
:0100140000EB
:0100150003E7
:0100160000E9
:0100170002E6
:0100180002E5
:0100190003E3
:01001A0003E2
:01001B0000E4
:01001C0003E0
:01001D0003DF
:01001E0002DF
:01001F0002DE
:0100200003DC
:0100210003DB
:0100220000DD
:0100230002DA
:0100240002D9
:0100250000DA
:0100260000D9
:0100270001D7
:0100280000D7
:0100290000D6
:01002A0002D3
:01002B0001D3
:01002C0002D1
:01002D0001D1
:01002E0001D0
:01002F0003CD
:0100300002CD
:0100310003CB
:0100320001CC
:0100330001CB
:0100340002C9
:0100350001C9
:0100360001C8
:0100370003C5
:0100380002C5
:0100390003C3
:01003A0001C4
:01003B0001C3
:01003C0002C1
:01003D0000C2
:01003E0000C1
:01003F0002BE
:0100400000BF
:0100410001BD
:0100420002BB
:0100430001BB
:0100440001BA
:0100450003B7
:0100460002B7
:0100470003B5
:0100480000B7
:0100490000B6
:01004A0000B5
:01004B0002B2
:01004C0001B2
:01004D0001B1
:01004E0003AE
:01004F0002AE
:0100500003AC
:0100510000AE
:0100520003AA
:0100530000AC
:0100540001AA
:0100550000AA
:0100560000A9
:0100570001A7
:0100580000A7
:0100590000A6
:01005A0001A4
:01005B0003A1
:01005C0002A1
:01005D00039F
:01005E0001A0
:01005F0000A0
:01006000009F
:01006100029C
:01006200019C
:01006300009C
:010064000299
:01006500009A
:010066000396
:010067000098
:010068000196
:010069000096
:01006A000095
:01006B000193
:01006C000093
:01006D00038F
:01006E000091
:01006F00018F
:01007000008F
:01007100008E
:01007200018C
:010073000389
:010074000289
:010075000288
:010076000089
:010077000286
:010078000186
:010079000284
:01007A000382
:01007B000282
:01007C000281
:01007D000280
:01007E000081
:01007F00037D
:01008000037C
:01008100007E
:01008200017C
:01008300007C
:01008400007B
:010085000179
:010086000376
:010087000276
:010088000275
:010089000274
:01008A000075
:01008B000371
:01008C000370
:01008D000072
:01008E000170
:01008F000070
:01009000006F
:01009100006E
:01009200026B
:01009300006C
:01009400006B
:01009500006A
:010096000168
:010097000068
:010098000364
:010099000363
:01009A000065
:01009B000163
:01009C000063
:01009D000062
:01009E000061
:01009F00025E
:0100A000005F
:0100A100035B
:0100A200005D
:0100A300015B
:0100A4000259
:0100A5000159
:0100A6000158
:0100A7000157
:0100A8000354
:0100A9000155
:0100AA000055
:0100AB000054
:0100AC000053
:0100AD000250
:0100AE000051
:0100AF00034D
:0100B000034C
:0100B100004E
:0100B200024B
:0100B300004C
:0100B400004B
:0100B500004A
:0100B6000148
:0100B7000345
:0100B8000146
:0100B9000046
:0100BA000144
:0100BB000143
:0100BC000340
:0100BD000240
:0100BE000140
:0100BF00013F
:0100C000023D
:0100C100033B
:0100C200023B
:0100C300013B
:0100C400013A
:0100C5000139
:0100C6000336
:0100C7000137
:0100C8000037
:0100C9000333
:0100CA000035
:0100CB000133
:0100CC000231
:0100CD000131
:0100CE000031
:0100CF000030
:0100D000012E
:0100D100022C
:0100D200012C
:0100D300002C
:0100D4000328
:0100D5000327
:0100D6000029
:0100D7000226
:0100D8000126
:0100D9000026
:0100DA000322
:0100DB000024
:0100DC000122
:0100DD00031F
:0100DE000120
:0100DF00011F
:0100E000011E
:0100E100011D
:0100E200021B
:0100E300001C
:0100E4000318
:0100E5000218
:0100E6000217
:0100E7000216
:0100E8000017
:0100E9000214
:0100EA000015
:0100EB000311
:0100EC000310
:0100ED00030F
:0100EE000011
:0100EF00020E
:0100F000010E
:0100F100030B
:0100F200030A
:0100F3000309
:0100F400000B
:0100F5000208
:0100F6000009
:0100F7000206
:0100F8000205
:0100F9000204
:0100FA000203
:0100FB000301
:0100FC000102
:0100FD000002
:0100FE0002FF
:0100FF0002FE
:0101000002FC
:0101010003FA
:0101020000FC
:0101030002F9
:0101040001F9
:0101050000F9
:0101060003F5
:0101070000F7
:0101080000F6
:0101090002F3
:01010A0000F4
:01010B0002F1
:01010C0002F0
:01010D0001F0
:01010E0001EF
:01010F0002ED
:0101100000EE
:0101110001EC
:0101120000EC
:0101130003E8
:0101140003E7
:0101150003E6
:0101160003E5
:0101170001E6
:0101180002E4
:0101190001E4
:01011A0003E1
:01011B0003E0
:01011C0003DF
:01011D0003DE
:01011E0000E0
:01011F0002DD
:0101200000DE
:0101210002DB
:0101220001DB
:0101230001DA
:0101240001D9
:0101250002D7
:0101260003D5
:0101270000D7
:0101280003D3
:0101290001D4
:01012A0000D4
:01012B0000D3
:01012C0000D2
:01012D0001D0
:01012E0002CE
:01012F0000CF
:0101300002CC
:0101310001CC
:0101320000CC
:0101330000CB
:0101340000CA
:0101350000C9
:0101360001C7
:0101370003C4
:0101380001C5
:0101390000C5
:01013A0003C1
:01013B0002C1
:01013C0002C0
:01013D0003BE
:01013E0000C0
:01013F0001BE
:0101400003BB
:0101410001BC
:0101420000BC
:0101430003B8
:0101440003B7
:0101450003B6
:0101460000B8
:0101470001B6
:0101480003B3
:0101490001B4
:01014A0003B1
:01014B0002B1
:01014C0001B1
:01014D0001B0
:01014E0001AF
:01014F0002AD
:0101500003AB
:0101510001AC
:0101520003A9
:0101530001AA
:0101540000AA
:0101550003A6
:0101560003A5
:0101570003A4
:0101580000A6
:0101590001A4
:01015A0002A2
:01015B0000A3
:01015C00039F
:01015D0001A0
:01015E00019F
:01015F00009F
:01016000009E
:01016100019C
:01016200019B
:010163000398
:01016400009A
:010165000297
:010166000197
:010167000097
:010168000393
:010169000392
:01016A000391
:01016B000390
:01016C000092
:01016D000190
:01016E00038D
:01016F00018E
:01017000008E
:01017100038A
:01017200028A
:01017300018A
:010174000288
:010175000287
:010176000385
:010177000087
:010178000284
:010179000085
:01017A000282
:01017B000182
:01017C000082
:01017D00037E
:01017E00037D
:01017F00037C
:01018000007E
:01018100017C
:01018200027A
:01018300007B
:010184000278
:010185000178
:010186000078
:010187000374
:010188000274
:010189000273
:01018A000371
:01018B000370
:01018C000072
:01018D00026F
:01018E000070
:01018F00026D
:01019000006E
:01019100036A
:01019200026A
:010193000269
:010194000169
:010195000267
:010196000266
:010197000364
:010198000066
:010199000263
:01019A000064
:01019B000261
:01019C000161
:01019D000061
:01019E00035D
:01019F00035C
:0101A000035B
:0101A100035A
:0101A200005C
:0101A300015A
:0101A4000258
:0101A5000059
:0101A6000256
:0101A7000057
:0101A8000353
:0101A9000154
:0101AA000153
:0101AB000053
:0101AC000052
:0101AD000150
:0101AE00014F
:0101AF00024D
:0101B000034B
:0101B100014C
:0101B2000349
:0101B300014A
:0101B4000347
:0101B5000247
:0101B6000147
:0101B7000146
:0101B8000145
:0101B9000144
:0101BA000143
:0101BB000241
:0101BC00033F
:0101BD000041
:0101BE00023E
:0101BF00033C
:0101C000023C
:0101C100003D
:0101C2000339
:0101C3000239
:0101C4000238
:0101C5000138
:0101C6000137
:0101C7000235
:0101C8000234
:0101C9000332
:0101CA000034
:0101CB000231
:0101CC000032
:0101CD00022F
:0101CE000030
:0101CF00032C
:0101D000022C
:0101D100012C
:0101D200002C
:0101D300002B
:0101D400002A
:0101D5000128
:0101D6000127
:0101D7000225
:0101D8000026
:0101D9000124
:0101DA000321
:0101DB000122
:0101DC00031F
:0101DD00021F
:0101DE00011F
:0101DF00001F
:0101E000001E
:0101E100031A
:0101E2000319
:0101E300001B
:0101E400001A
:0101E5000118
:0101E6000216
:0101E7000017
:0101E8000115
:0101E9000312
:0101EA000113
:0101EB000013
:0101EC000210
:0101ED000110
:0101EE00010F
:0101EF00000F
:0101F000000E
:0101F100000D
:0101F200000C
:0101F300010A
:0101F4000208
:0101F5000306
:0101F6000008
:0101F7000205
:0101F8000006
:0101F9000203
:0101FA000004
:0101FB000300
:0101FC000200
:0101FD000100
:0101FE000000
:0101FF0000FF
:00000001ff
