:020000040000FA
:0100000003FC
:0100010001FD
:0100020000FD
:0100030002FA
:0100040001FA
:0100050003F7
:0100060002F7
:0100070001F7
:0100080003F4
:0100090002F4
:01000A0000F5
:01000B0003F1
:01000C0002F1
:01000D0000F2
:01000E0003EE
:01000F0002EE
:0100100000EF
:0100110003EB
:0100120002EB
:0100130000EC
:0100140003E8
:0100150002E8
:0100160001E8
:0100170003E5
:0100180002E5
:0100190001E5
:01001A0000E5
:01001B0002E2
:01001C0001E2
:01001D0000E2
:01001E0003DE
:01001F0001DF
:0100200000DF
:0100210003DB
:0100220002DB
:0100230001DB
:0100240000DB
:0100250003D7
:0100260001D8
:0100270000D8
:0100280003D4
:0100290002D4
:01002A0001D4
:01002B0000D4
:01002C0003D0
:01002D0002D0
:01002E0001D0
:01002F0000D0
:0100300003CC
:0100310002CC
:0100320001CC
:0100330000CC
:0100340003C8
:0100350002C8
:0100360000C9
:0100370003C5
:0100380003C4
:0100390002C4
:01003A0001C4
:01003B0000C4
:01003C0003C0
:01003D0002C0
:01003E0001C0
:01003F0000C0
:0100400003BC
:0100410002BC
:0100420001BC
:0100430000BC
:0100440003B8
:0100450002B8
:0100460001B8
:0100470000B8
:0100480000B7
:0100490003B3
:01004A0002B3
:01004B0001B3
:01004C0000B3
:01004D0003AF
:01004E0002AF
:01004F0002AE
:0100500001AE
:0100510000AE
:0100520003AA
:0100530002AA
:0100540001AA
:0100550001A9
:0100560000A9
:0100570003A5
:0100580002A5
:0100590001A5
:01005A0001A4
:01005B0000A4
:01005C0003A0
:01005D0002A0
:01005E00029F
:01005F00019F
:01006000009F
:01006100039B
:01006200029B
:01006300029A
:01006400019A
:01006500009A
:010066000099
:010067000395
:010068000295
:010069000294
:01006A000194
:01006B000094
:01006C000390
:01006D00038F
:01006E00028F
:01006F00018F
:01007000008F
:01007100008E
:01007200038A
:010073000389
:010074000289
:010075000189
:010076000188
:010077000088
:010078000384
:010079000383
:01007A000283
:01007B000183
:01007C000182
:01007D000082
:01007E000081
:01007F00037D
:01008000027D
:01008100027C
:01008200017C
:01008300017B
:01008400007B
:010085000377
:010086000376
:010087000276
:010088000275
:010089000175
:01008A000075
:01008B000074
:01008C000370
:01008D00036F
:01008E00026F
:01008F00016F
:01009000016E
:01009100006E
:01009200006D
:010093000369
:010094000368
:010095000268
:010096000267
:010097000167
:010098000166
:010099000066
:01009A000065
:01009B000361
:01009C000261
:01009D000260
:01009E000160
:01009F00015F
:0100A000005F
:0100A100005E
:0100A200005D
:0100A3000359
:0100A4000259
:0100A5000258
:0100A6000257
:0100A7000157
:0100A8000156
:0100A9000056
:0100AA000055
:0100AB000351
:0100AC000350
:0100AD000250
:0100AE00024F
:0100AF00014F
:0100B000014E
:0100B100004E
:0100B200004D
:0100B300004C
:0100B4000348
:0100B5000347
:0100B6000247
:0100B7000246
:0100B8000146
:0100B9000145
:0100BA000045
:0100BB000044
:0100BC000340
:0100BD00033F
:0100BE00033E
:0100BF00023E
:0100C000023D
:0100C100023C
:0100C200013C
:0100C300013B
:0100C400003B
:0100C500003A
:0100C6000336
:0100C7000335
:0100C8000235
:0100C9000234
:0100CA000233
:0100CB000133
:0100CC000132
:0100CD000032
:0100CE000031
:0100CF000030
:0100D000032C
:0100D100032B
:0100D200032A
:0100D300022A
:0100D4000229
:0100D5000129
:0100D6000128
:0100D7000127
:0100D8000027
:0100D9000026
:0100DA000025
:0100DB000321
:0100DC000320
:0100DD00031F
:0100DE00021F
:0100DF00021E
:0100E000011E
:0100E100011D
:0100E200011C
:0100E300001C
:0100E400001B
:0100E500001A
:0100E6000316
:0100E7000315
:0100E8000314
:0100E9000214
:0100EA000213
:0100EB000212
:0100EC000211
:0100ED000111
:0100EE000110
:0100EF00010F
:0100F000000F
:0100F100000E
:0100F200000D
:0100F3000309
:0100F4000308
:0100F5000307
:0100F6000207
:0100F7000206
:0100F8000205
:0100F9000105
:0100FA000104
:0100FB000103
:0100FC000102
:0100FD000002
:0100FE000001
:0100FF000000
:0101000003FB
:0101010003FA
:0101020003F9
:0101030002F9
:0101040002F8
:0101050002F7
:0101060001F7
:0101070001F6
:0101080001F5
:0101090001F4
:01010A0000F4
:01010B0000F3
:01010C0000F2
:01010D0000F1
:01010E0003ED
:01010F0003EC
:0101100003EB
:0101110003EA
:0101120002EA
:0101130002E9
:0101140002E8
:0101150001E8
:0101160001E7
:0101170001E6
:0101180001E5
:0101190000E5
:01011A0000E4
:01011B0000E3
:01011C0003DF
:01011D0003DE
:01011E0003DD
:01011F0003DC
:0101200002DC
:0101210002DB
:0101220002DA
:0101230002D9
:0101240002D8
:0101250001D8
:0101260001D7
:0101270001D6
:0101280001D5
:0101290000D5
:01012A0000D4
:01012B0000D3
:01012C0000D2
:01012D0003CE
:01012E0003CD
:01012F0003CC
:0101300003CB
:0101310002CB
:0101320002CA
:0101330002C9
:0101340002C8
:0101350001C8
:0101360001C7
:0101370001C6
:0101380001C5
:0101390000C5
:01013A0000C4
:01013B0000C3
:01013C0000C2
:01013D0000C1
:01013E0003BD
:01013F0003BC
:0101400003BB
:0101410003BA
:0101420003B9
:0101430002B9
:0101440002B8
:0101450002B7
:0101460002B6
:0101470002B5
:0101480001B5
:0101490001B4
:01014A0001B3
:01014B0001B2
:01014C0001B1
:01014D0000B1
:01014E0000B0
:01014F0000AF
:0101500000AE
:0101510000AD
:0101520003A9
:0101530003A8
:0101540003A7
:0101550003A6
:0101560003A5
:0101570002A5
:0101580002A4
:0101590002A3
:01015A0002A2
:01015B0002A1
:01015C0001A1
:01015D0001A0
:01015E00019F
:01015F00019E
:01016000019D
:01016100009D
:01016200009C
:01016300009B
:01016400009A
:010165000099
:010166000098
:010167000394
:010168000393
:010169000392
:01016A000391
:01016B000390
:01016C00038F
:01016D00028F
:01016E00028E
:01016F00028D
:01017000028C
:01017100028B
:01017200018B
:01017300018A
:010174000189
:010175000188
:010176000187
:010177000186
:010178000185
:010179000085
:01017A000084
:01017B000083
:01017C000082
:01017D000081
:01017E000080
:01017F00037C
:01018000037B
:01018100037A
:010182000379
:010183000378
:010184000377
:010185000277
:010186000276
:010187000275
:010188000274
:010189000273
:01018A000272
:01018B000271
:01018C000171
:01018D000170
:01018E00016F
:01018F00016E
:01019000016D
:01019100016C
:01019200006C
:01019300006B
:01019400006A
:010195000069
:010196000068
:010197000067
:010198000066
:010199000362
:01019A000361
:01019B000360
:01019C00035F
:01019D00035E
:01019E00035D
:01019F00035C
:0101A000025C
:0101A100025B
:0101A200025A
:0101A3000259
:0101A4000258
:0101A5000257
:0101A6000256
:0101A7000156
:0101A8000155
:0101A9000154
:0101AA000153
:0101AB000152
:0101AC000151
:0101AD000150
:0101AE00014F
:0101AF00004F
:0101B000004E
:0101B100004D
:0101B200004C
:0101B300004B
:0101B400004A
:0101B5000049
:0101B6000345
:0101B7000344
:0101B8000343
:0101B9000342
:0101BA000341
:0101BB000340
:0101BC00033F
:0101BD00033E
:0101BE00023E
:0101BF00023D
:0101C000023C
:0101C100023B
:0101C200023A
:0101C3000239
:0101C4000238
:0101C5000237
:0101C6000236
:0101C7000235
:0101C8000135
:0101C9000134
:0101CA000133
:0101CB000132
:0101CC000131
:0101CD000130
:0101CE00012F
:0101CF00012E
:0101D000002E
:0101D100002D
:0101D200002C
:0101D300002B
:0101D400002A
:0101D5000029
:0101D6000028
:0101D7000027
:0101D8000026
:0101D9000322
:0101DA000321
:0101DB000320
:0101DC00031F
:0101DD00031E
:0101DE00031D
:0101DF00031C
:0101E000031B
:0101E100021B
:0101E200021A
:0101E3000219
:0101E4000218
:0101E5000217
:0101E6000216
:0101E7000215
:0101E8000214
:0101E9000213
:0101EA000212
:0101EB000211
:0101EC000111
:0101ED000110
:0101EE00010F
:0101EF00010E
:0101F000010D
:0101F100010C
:0101F200010B
:0101F300010A
:0101F4000109
:0101F5000108
:0101F6000008
:0101F7000007
:0101F8000006
:0101F9000005
:0101FA000004
:0101FB000003
:0101FC000002
:0101FD000001
:0101FE000000
:0101FF0003FC
:00000001ff
