:020000040000FA
:0100000000FF
:0100010002FC
:0100020002FB
:0100030002FA
:0100040000FB
:0100050003F7
:0100060003F6
:0100070000F8
:0100080002F5
:0100090001F5
:01000A0002F3
:01000B0003F1
:01000C0002F1
:01000D0003EF
:01000E0000F1
:01000F0003ED
:0100100003EC
:0100110001ED
:0100120000ED
:0100130000EC
:0100140002E9
:0100150001E9
:0100160001E8
:0100170003E5
:0100180003E4
:0100190000E6
:01001A0002E3
:01001B0002E2
:01001C0000E3
:01001D0003DF
:01001E0000E1
:01001F0002DE
:0100200002DD
:0100210000DE
:0100220003DA
:0100230000DC
:0100240003D8
:0100250000DA
:0100260002D7
:0100270002D6
:0100280000D7
:0100290003D3
:01002A0000D5
:01002B0003D1
:01002C0000D3
:01002D0003CF
:01002E0003CE
:01002F0002CE
:0100300002CD
:0100310001CD
:0100320001CC
:0100330003C9
:0100340003C8
:0100350001C9
:0100360001C8
:0100370003C5
:0100380003C4
:0100390001C5
:01003A0001C4
:01003B0003C1
:01003C0003C0
:01003D0001C1
:01003E0002BF
:01003F0000C0
:0100400001BE
:0100410003BB
:0100420000BD
:0100430003B9
:0100440000BB
:0100450003B7
:0100460001B8
:0100470001B7
:0100480003B4
:0100490003B3
:01004A0001B4
:01004B0002B2
:01004C0001B2
:01004D0002B0
:01004E0001B0
:01004F0003AD
:0100500003AC
:0100510001AD
:0100520002AB
:0100530001AB
:0100540002A9
:0100550002A8
:0100560001A8
:0100570001A7
:0100580000A7
:0100590001A5
:01005A0001A4
:01005B0003A1
:01005C0000A3
:01005D00039F
:01005E0000A1
:01005F00019F
:01006000039C
:01006100009E
:01006200009D
:01006300029A
:010064000299
:010065000199
:010066000396
:010067000395
:010068000295
:010069000393
:01006A000392
:01006B000193
:01006C000291
:01006D000290
:01006E000091
:01006F00018F
:01007000018E
:01007100038B
:01007200008D
:010073000389
:01007400018A
:010075000288
:010076000188
:010077000088
:010078000087
:010079000086
:01007A000283
:01007B000381
:01007C000380
:01007D000280
:01007E00037E
:01007F00037D
:01008000027D
:01008100037B
:01008200037A
:01008300027A
:01008400007B
:010085000179
:010086000178
:010087000375
:010088000077
:010089000076
:01008A000372
:01008B000074
:01008C000172
:01008D000072
:01008E00036E
:01008F000070
:01009000006F
:01009100036B
:01009200006D
:01009300016B
:01009400016A
:010095000367
:010096000069
:010097000167
:010098000067
:010099000264
:01009A000362
:01009B000361
:01009C000360
:01009D000161
:01009E00025F
:01009F00025E
:0100A000005F
:0100A100025C
:0100A200035A
:0100A3000359
:0100A4000259
:0100A500005A
:0100A6000158
:0100A7000157
:0100A8000057
:0100A9000254
:0100AA000352
:0100AB000054
:0100AC000350
:0100AD000151
:0100AE00024F
:0100AF00034D
:0100B000024D
:0100B100014D
:0100B200034A
:0100B3000349
:0100B4000348
:0100B5000248
:0100B6000049
:0100B7000147
:0100B8000146
:0100B9000145
:0100BA000342
:0100BB000143
:0100BC000241
:0100BD000240
:0100BE000140
:0100BF00033D
:0100C000003F
:0100C100013D
:0100C200013C
:0100C3000339
:0100C4000239
:0100C5000337
:0100C6000336
:0100C7000335
:0100C8000136
:0100C9000333
:0100CA000134
:0100CB000133
:0100CC000132
:0100CD000032
:0100CE000130
:0100CF00032D
:0100D000032C
:0100D100032B
:0100D200022B
:0100D300002C
:0100D4000229
:0100D5000228
:0100D6000227
:0100D7000226
:0100D8000027
:0100D9000224
:0100DA000322
:0100DB000321
:0100DC000221
:0100DD000121
:0100DE000021
:0100DF00011F
:0100E000021D
:0100E100021C
:0100E200011C
:0100E300001C
:0100E4000219
:0100E5000317
:0100E6000316
:0100E7000315
:0100E8000215
:0100E9000115
:0100EA000312
:0100EB000014
:0100EC000013
:0100ED000012
:0100EE000011
:0100EF00020E
:0100F000000F
:0100F100010D
:0100F200020B
:0100F300020A
:0100F400010A
:0100F500000A
:0100F6000207
:0100F7000008
:0100F8000106
:0100F9000105
:0100FA000005
:0100FB000301
:0100FC000201
:0100FD000002
:0100FE000100
:0100FF0001FF
:0101000001FD
:0101010001FC
:0101020000FC
:0101030002F9
:0101040003F7
:0101050001F8
:0101060001F7
:0101070001F6
:0101080000F6
:0101090003F2
:01010A0001F3
:01010B0003F0
:01010C0000F2
:01010D0000F1
:01010E0000F0
:01010F0000EF
:0101100003EB
:0101110001EC
:0101120003E9
:0101130000EB
:0101140001E9
:0101150001E8
:0101160001E7
:0101170000E7
:0101180002E4
:0101190001E4
:01011A0002E2
:01011B0003E0
:01011C0000E2
:01011D0000E1
:01011E0003DD
:01011F0002DD
:0101200001DD
:0101210002DB
:0101220000DC
:0101230001DA
:0101240001D9
:0101250001D8
:0101260001D7
:0101270000D7
:0101280002D4
:0101290000D5
:01012A0002D2
:01012B0003D0
:01012C0000D2
:01012D0000D1
:01012E0003CD
:01012F0002CD
:0101300001CD
:0101310003CA
:0101320001CB
:0101330003C8
:0101340003C7
:0101350000C9
:0101360000C8
:0101370003C4
:0101380002C4
:0101390001C4
:01013A0003C1
:01013B0001C2
:01013C0002C0
:01013D0003BE
:01013E0003BD
:01013F0003BC
:0101400003BB
:0101410002BB
:0101420001BB
:0101430003B8
:0101440001B9
:0101450002B7
:0101460003B5
:0101470000B7
:0101480000B6
:0101490003B2
:01014A0003B1
:01014B0002B1
:01014C0000B2
:01014D0002AF
:01014E0000B0
:01014F0001AE
:0101500002AC
:0101510003AA
:0101520003A9
:0101530003A8
:0101540002A8
:0101550001A8
:0101560003A5
:0101570001A6
:0101580003A3
:0101590000A5
:01015A0001A3
:01015B0002A1
:01015C0002A0
:01015D00029F
:01015E00029E
:01015F00019E
:01016000009E
:01016100029B
:01016200009C
:01016300019A
:010164000397
:010165000099
:010166000098
:010167000097
:010168000096
:010169000095
:01016A000391
:01016B000192
:01016C000092
:01016D00028F
:01016E000090
:01016F00018E
:01017000028C
:01017100038A
:010172000389
:010173000388
:010174000387
:010175000287
:010176000187
:010177000087
:010178000284
:010179000085
:01017A000183
:01017B000380
:01017C000082
:01017D000180
:01017E00017F
:01017F00017E
:01018000007E
:01018100007D
:010182000379
:010183000279
:01018400007A
:010185000277
:010186000078
:010187000275
:010188000373
:010189000372
:01018A000074
:01018B000073
:01018C000072
:01018D000071
:01018E00036D
:01018F00026D
:01019000016D
:01019100006D
:01019200026A
:010193000368
:010194000169
:010195000267
:010196000365
:010197000067
:010198000066
:010199000164
:01019A000064
:01019B000063
:01019C00035F
:01019D00025F
:01019E00015F
:01019F00035C
:0101A000015D
:0101A100035A
:0101A200015B
:0101A3000259
:0101A4000357
:0101A5000059
:0101A6000058
:0101A7000156
:0101A8000056
:0101A9000055
:0101AA000054
:0101AB000350
:0101AC000250
:0101AD000051
:0101AE00024E
:0101AF00004F
:0101B000024C
:0101B100004D
:0101B200014B
:0101B3000249
:0101B4000347
:0101B5000049
:0101B6000048
:0101B7000047
:0101B8000046
:0101B9000342
:0101BA000242
:0101BB000142
:0101BC000042
:0101BD00033E
:0101BE00013F
:0101BF00033C
:0101C000013D
:0101C100023B
:0101C200003C
:0101C300013A
:0101C4000238
:0101C5000237
:0101C6000335
:0101C7000334
:0101C8000333
:0101C9000233
:0101CA000232
:0101CB000132
:0101CC000032
:0101CD00022F
:0101CE00012F
:0101CF00032C
:0101D000012D
:0101D100032A
:0101D200012B
:0101D3000229
:0101D4000327
:0101D5000029
:0101D6000127
:0101D7000126
:0101D8000125
:0101D9000124
:0101DA000123
:0101DB000122
:0101DC000022
:0101DD00031E
:0101DE00021E
:0101DF00011E
:0101E000001E
:0101E100021B
:0101E200001C
:0101E3000219
:0101E4000317
:0101E5000118
:0101E6000216
:0101E7000314
:0101E8000016
:0101E9000015
:0101EA000113
:0101EB000112
:0101EC000111
:0101ED000110
:0101EE000010
:0101EF00000F
:0101F000030B
:0101F100020B
:0101F200010B
:0101F3000308
:0101F4000208
:0101F5000009
:0101F6000206
:0101F7000007
:0101F8000105
:0101F9000302
:0101FA000004
:0101FB000102
:0101FC000200
:0101FD0003FE
:0101FE0003FD
:0101FF0000FF
:00000001ff
