:020000040000FA
:0100000000FF
:0100010003FB
:0100020000FD
:0100030002FA
:0100040003F8
:0100050002F8
:0100060001F8
:0100070001F7
:0100080003F4
:0100090002F4
:01000A0002F3
:01000B0000F4
:01000C0003F0
:01000D0000F2
:01000E0002EF
:01000F0001EF
:0100100002ED
:0100110002EC
:0100120002EB
:0100130003E9
:0100140000EB
:0100150001E9
:0100160000E9
:0100170001E7
:0100180002E5
:0100190001E5
:01001A0000E5
:01001B0000E4
:01001C0003E0
:01001D0002E0
:01001E0003DE
:01001F0003DD
:0100200003DC
:0100210001DD
:0100220003DA
:0100230003D9
:0100240003D8
:0100250003D7
:0100260001D8
:0100270002D6
:0100280000D7
:0100290002D4
:01002A0002D3
:01002B0001D3
:01002C0002D1
:01002D0000D2
:01002E0001D0
:01002F0002CE
:0100300000CF
:0100310001CD
:0100320001CC
:0100330002CA
:0100340003C8
:0100350002C8
:0100360003C6
:0100370002C6
:0100380000C7
:0100390000C6
:01003A0001C4
:01003B0000C4
:01003C0001C2
:01003D0002C0
:01003E0002BF
:01003F0003BD
:0100400001BE
:0100410003BB
:0100420000BD
:0100430001BB
:0100440000BB
:0100450001B9
:0100460000B9
:0100470003B5
:0100480000B7
:0100490002B4
:01004A0000B5
:01004B0002B2
:01004C0000B3
:01004D0002B0
:01004E0002AF
:01004F0001AF
:0100500000AF
:0100510003AB
:0100520001AC
:0100530001AB
:0100540003A8
:0100550003A7
:0100560000A9
:0100570002A6
:0100580002A5
:0100590001A5
:01005A0003A2
:01005B0003A1
:01005C0001A2
:01005D0002A0
:01005E00029F
:01005F00039D
:01006000029D
:01006100029C
:01006200029B
:01006300019B
:010064000398
:010065000199
:010066000099
:010067000098
:010068000295
:010069000294
:01006A000293
:01006B000391
:01006C000291
:01006D000092
:01006E00028F
:01006F000090
:01007000038C
:01007100038B
:01007200028B
:010073000389
:01007400008B
:010075000387
:010076000188
:010077000088
:010078000384
:010079000383
:01007A000085
:01007B000183
:01007C000083
:01007D000181
:01007E00037E
:01007F000080
:01008000017E
:01008100007E
:01008200027B
:01008300027A
:010084000279
:010085000179
:010086000079
:010087000177
:010088000275
:010089000175
:01008A000174
:01008B000173
:01008C000172
:01008D000270
:01008E000170
:01008F00036D
:01009000036C
:01009100006E
:01009200006D
:01009300006C
:01009400016A
:010095000367
:010096000069
:010097000167
:010098000364
:010099000363
:01009A000164
:01009B000361
:01009C000261
:01009D000161
:01009E00035E
:01009F00015F
:0100A000035C
:0100A100035B
:0100A200005D
:0100A300025A
:0100A4000259
:0100A500005A
:0100A6000257
:0100A7000058
:0100A8000354
:0100A9000353
:0100AA000154
:0100AB000054
:0100AC000053
:0100AD00034F
:0100AE000150
:0100AF00014F
:0100B000034C
:0100B100014D
:0100B200004D
:0100B300014B
:0100B4000249
:0100B500004A
:0100B6000049
:0100B7000345
:0100B8000047
:0100B9000244
:0100BA000144
:0100BB000341
:0100BC000043
:0100BD000240
:0100BE00023F
:0100BF00013F
:0100C000023D
:0100C100023C
:0100C200013C
:0100C300003C
:0100C400013A
:0100C5000337
:0100C6000138
:0100C7000236
:0100C8000334
:0100C9000333
:0100CA000134
:0100CB000331
:0100CC000033
:0100CD000032
:0100CE00032E
:0100CF00032D
:0100D000002F
:0100D100022C
:0100D200002D
:0100D300022A
:0100D400002B
:0100D5000129
:0100D6000029
:0100D7000028
:0100D8000225
:0100D9000026
:0100DA000322
:0100DB000222
:0100DC000221
:0100DD000022
:0100DE000120
:0100DF00021E
:0100E000031C
:0100E100031B
:0100E200001D
:0100E3000319
:0100E400001B
:0100E5000119
:0100E6000316
:0100E7000315
:0100E8000116
:0100E9000313
:0100EA000213
:0100EB000311
:0100EC000112
:0100ED00030F
:0100EE000011
:0100EF00010F
:0100F000020D
:0100F100010D
:0100F200020B
:0100F3000309
:0100F400010A
:0100F5000109
:0100F6000009
:0100F7000305
:0100F8000007
:0100F9000006
:0100FA000005
:0100FB000103
:0100FC000201
:0100FD000002
:0100FE000001
:0100FF0002FE
:0101000000FE
:0101010001FC
:0101020003F9
:0101030001FA
:0101040003F7
:0101050002F7
:0101060002F6
:0101070000F7
:0101080003F3
:0101090001F4
:01010A0001F3
:01010B0003F0
:01010C0003EF
:01010D0003EE
:01010E0002EE
:01010F0003EC
:0101100001ED
:0101110000ED
:0101120002EA
:0101130000EB
:0101140002E8
:0101150003E6
:0101160000E8
:0101170001E6
:0101180001E5
:0101190000E5
:01011A0000E4
:01011B0001E2
:01011C0002E0
:01011D0000E1
:01011E0000E0
:01011F0000DF
:0101200001DD
:0101210003DA
:0101220000DC
:0101230000DB
:0101240001D9
:0101250000D9
:0101260003D5
:0101270001D6
:0101280000D6
:0101290001D4
:01012A0003D1
:01012B0002D1
:01012C0000D2
:01012D0003CE
:01012E0000D0
:01012F0003CC
:0101300000CE
:0101310003CA
:0101320000CC
:0101330001CA
:0101340003C7
:0101350001C8
:0101360002C6
:0101370001C6
:0101380003C3
:0101390001C4
:01013A0003C1
:01013B0001C2
:01013C0000C2
:01013D0002BF
:01013E0002BE
:01013F0000BF
:0101400002BC
:0101410003BA
:0101420002BA
:0101430003B8
:0101440003B7
:0101450000B9
:0101460000B8
:0101470002B5
:0101480000B6
:0101490003B2
:01014A0000B4
:01014B0003B0
:01014C0003AF
:01014D0003AE
:01014E0001AF
:01014F0002AD
:0101500000AE
:0101510002AB
:0101520000AC
:0101530000AB
:0101540000AA
:0101550003A6
:0101560003A5
:0101570003A4
:0101580003A3
:0101590003A2
:01015A0003A1
:01015B0002A1
:01015C0002A0
:01015D0001A0
:01015E00019F
:01015F00019E
:01016000019D
:01016100039A
:01016200019B
:010163000299
:010164000298
:010165000297
:010166000098
:010167000196
:010168000294
:010169000095
:01016A000292
:01016B000390
:01016C000290
:01016D00038E
:01016E00038D
:01016F00018E
:01017000038B
:01017100018C
:01017200028A
:010173000388
:010174000387
:010175000089
:010176000187
:010177000384
:010178000284
:010179000184
:01017A000381
:01017B000182
:01017C000181
:01017D000081
:01017E00017F
:01017F00007F
:01018000027C
:01018100017C
:01018200007C
:010183000378
:010184000278
:010185000277
:010186000177
:010187000176
:010188000373
:010189000372
:01018A000074
:01018B000172
:01018C00036F
:01018D000170
:01018E000070
:01018F00036C
:01019000026C
:01019100006D
:01019200026A
:010193000368
:010194000367
:010195000366
:010196000365
:010197000265
:010198000363
:010199000065
:01019A000262
:01019B000162
:01019C00035F
:01019D00035E
:01019E00035D
:01019F00025D
:0101A000025C
:0101A100035A
:0101A200025A
:0101A300005B
:0101A4000159
:0101A5000158
:0101A6000355
:0101A7000156
:0101A8000353
:0101A9000253
:0101AA000054
:0101AB000350
:0101AC000250
:0101AD00024F
:0101AE00024E
:0101AF00034C
:0101B000004E
:0101B100024B
:0101B200024A
:0101B3000249
:0101B400004A
:0101B5000148
:0101B6000246
:0101B7000344
:0101B8000343
:0101B9000144
:0101BA000242
:0101BB000241
:0101BC000141
:0101BD00033E
:0101BE00023E
:0101BF00023D
:0101C000013D
:0101C100013C
:0101C200003C
:0101C300013A
:0101C4000139
:0101C5000336
:0101C6000137
:0101C7000037
:0101C8000036
:0101C9000332
:0101CA000034
:0101CB000330
:0101CC000032
:0101CD00032E
:0101CE000030
:0101CF00012E
:0101D000002E
:0101D100032A
:0101D200012B
:0101D3000229
:0101D4000228
:0101D5000029
:0101D6000325
:0101D7000027
:0101D8000026
:0101D9000124
:0101DA000321
:0101DB000320
:0101DC000121
:0101DD000021
:0101DE00021E
:0101DF00001F
:0101E000001E
:0101E100011C
:0101E200011B
:0101E300001B
:0101E4000218
:0101E5000316
:0101E6000315
:0101E7000314
:0101E8000115
:0101E9000312
:0101EA000113
:0101EB000112
:0101EC000012
:0101ED00030E
:0101EE00030D
:0101EF00000F
:0101F000010D
:0101F100030A
:0101F200000C
:0101F300010A
:0101F4000109
:0101F5000306
:0101F6000008
:0101F7000007
:0101F8000303
:0101F9000005
:0101FA000004
:0101FB000201
:0101FC000002
:0101FD000100
:0101FE0001FF
:0101FF0001FE
:00000001ff
