:020000040000FA
:0100000000FF
:0100010003FB
:0100020000FD
:0100030002FA
:0100040000FB
:0100050002F8
:0100060001F8
:0100070003F5
:0100080000F7
:0100090002F4
:01000A0001F4
:01000B0000F4
:01000C0000F3
:01000D0000F2
:01000E0000F1
:01000F0000F0
:0100100002ED
:0100110002EC
:0100120003EA
:0100130001EB
:0100140002E9
:0100150000EA
:0100160003E6
:0100170002E6
:0100180001E6
:0100190003E3
:01001A0000E5
:01001B0003E1
:01001C0001E2
:01001D0003DF
:01001E0003DE
:01001F0003DD
:0100200000DF
:0100210003DB
:0100220000DD
:0100230002DA
:0100240000DB
:0100250000DA
:0100260003D6
:0100270000D8
:0100280003D4
:0100290002D4
:01002A0000D5
:01002B0002D2
:01002C0002D1
:01002D0002D0
:01002E0000D1
:01002F0001CF
:0100300003CC
:0100310001CD
:0100320000CD
:0100330002CA
:0100340002C9
:0100350000CA
:0100360003C6
:0100370002C6
:0100380001C6
:0100390003C3
:01003A0003C2
:01003B0001C3
:01003C0000C3
:01003D0003BF
:01003E0003BE
:01003F0002BE
:0100400003BC
:0100410000BE
:0100420002BB
:0100430000BC
:0100440000BB
:0100450000BA
:0100460003B6
:0100470002B6
:0100480000B7
:0100490003B3
:01004A0002B3
:01004B0001B3
:01004C0001B2
:01004D0003AF
:01004E0000B1
:01004F0001AF
:0100500002AD
:0100510003AB
:0100520001AC
:0100530003A9
:0100540000AB
:0100550000AA
:0100560000A9
:0100570001A7
:0100580002A5
:0100590001A5
:01005A0001A4
:01005B0000A4
:01005C0000A3
:01005D0000A2
:01005E00029F
:01005F00019F
:01006000039C
:01006100039B
:01006200009D
:010063000399
:010064000398
:010065000397
:010066000297
:010067000197
:010068000097
:010069000195
:01006A000293
:01006B000292
:01006C000192
:01006D00038F
:01006E000190
:01006F000090
:01007000038C
:01007100018D
:01007200018C
:01007300008C
:010074000388
:010075000387
:010076000386
:010077000286
:010078000285
:010079000383
:01007A000382
:01007B000084
:01007C000281
:01007D000280
:01007E000180
:01007F000080
:01008000037C
:01008100007E
:01008200017C
:010083000379
:010084000378
:01008500007A
:010086000178
:010087000177
:010088000374
:010089000274
:01008A000075
:01008B000074
:01008C000172
:01008D000270
:01008E00026F
:01008F000070
:01009000026D
:01009100036B
:01009200036A
:01009300006C
:01009400016A
:010095000268
:010096000069
:010097000365
:010098000265
:010099000363
:01009A000362
:01009B000262
:01009C000261
:01009D000062
:01009E00035E
:01009F00035D
:0100A000035C
:0100A100015D
:0100A200005D
:0100A300005C
:0100A4000358
:0100A5000159
:0100A6000059
:0100A7000058
:0100A8000354
:0100A9000155
:0100AA000055
:0100AB000054
:0100AC000350
:0100AD000250
:0100AE00024F
:0100AF00034D
:0100B000004F
:0100B100004E
:0100B200024B
:0100B300014B
:0100B400014A
:0100B500004A
:0100B6000148
:0100B7000048
:0100B8000047
:0100B9000343
:0100BA000243
:0100BB000341
:0100BC000043
:0100BD000240
:0100BE000041
:0100BF000040
:0100C000023D
:0100C100013D
:0100C200003D
:0100C3000339
:0100C400003B
:0100C5000238
:0100C6000138
:0100C7000137
:0100C8000334
:0100C9000036
:0100CA000332
:0100CB000232
:0100CC000132
:0100CD000032
:0100CE000130
:0100CF00032D
:0100D000032C
:0100D100022C
:0100D200012C
:0100D3000329
:0100D4000229
:0100D5000228
:0100D6000326
:0100D7000325
:0100D8000324
:0100D9000026
:0100DA000322
:0100DB000222
:0100DC000122
:0100DD000022
:0100DE000021
:0100DF00031D
:0100E000031C
:0100E100031B
:0100E200031A
:0100E300021A
:0100E4000318
:0100E5000119
:0100E6000118
:0100E7000117
:0100E8000017
:0100E9000214
:0100EA000213
:0100EB000014
:0100EC000310
:0100ED000210
:0100EE000011
:0100EF00020E
:0100F000010E
:0100F100020C
:0100F200010C
:0100F3000309
:0100F400010A
:0100F5000208
:0100F6000207
:0100F7000305
:0100F8000205
:0100F9000105
:0100FA000005
:0100FB000202
:0100FC000300
:0100FD000200
:0100FE0003FE
:0100FF0001FF
:0101000002FC
:0101010000FD
:0101020001FB
:0101030000FB
:0101040001F9
:0101050003F6
:0101060003F5
:0101070002F5
:0101080001F5
:0101090003F2
:01010A0000F4
:01010B0002F1
:01010C0002F0
:01010D0003EE
:01010E0000F0
:01010F0001EE
:0101100001ED
:0101110003EA
:0101120000EC
:0101130002E9
:0101140001E9
:0101150000E9
:0101160003E5
:0101170002E5
:0101180000E6
:0101190000E5
:01011A0001E3
:01011B0000E3
:01011C0000E2
:01011D0000E1
:01011E0000E0
:01011F0003DC
:0101200001DD
:0101210001DC
:0101220002DA
:0101230001DA
:0101240001D9
:0101250001D8
:0101260000D8
:0101270003D4
:0101280000D6
:0101290000D5
:01012A0002D2
:01012B0001D2
:01012C0001D1
:01012D0001D0
:01012E0001CF
:01012F0000CF
:0101300002CC
:0101310003CA
:0101320002CA
:0101330002C9
:0101340000CA
:0101350002C7
:0101360000C8
:0101370002C5
:0101380003C3
:0101390003C2
:01013A0002C2
:01013B0002C1
:01013C0000C2
:01013D0003BE
:01013E0003BD
:01013F0003BC
:0101400002BC
:0101410001BC
:0101420003B9
:0101430003B8
:0101440001B9
:0101450001B8
:0101460002B6
:0101470000B7
:0101480002B4
:0101490000B5
:01014A0002B2
:01014B0003B0
:01014C0002B0
:01014D0000B1
:01014E0000B0
:01014F0001AE
:0101500003AB
:0101510002AB
:0101520001AB
:0101530001AA
:0101540003A7
:0101550001A8
:0101560001A7
:0101570000A7
:0101580001A5
:0101590003A2
:01015A0003A1
:01015B0003A0
:01015C0000A2
:01015D0001A0
:01015E00019F
:01015F00019E
:01016000039B
:01016100019C
:01016200009C
:01016300019A
:01016400009A
:010165000099
:010166000098
:010167000196
:010168000195
:010169000293
:01016A000292
:01016B000093
:01016C000191
:01016D000190
:01016E00028E
:01016F00018E
:01017000018D
:01017100028B
:010172000389
:01017300018A
:010174000288
:010175000386
:010176000385
:010177000285
:010178000383
:010179000283
:01017A000381
:01017B000281
:01017C000280
:01017D00027F
:01017E000080
:01017F00017E
:01018000027C
:01018100037A
:010182000379
:01018300017A
:010184000377
:010185000376
:010186000078
:010187000374
:010188000076
:010189000273
:01018A000074
:01018B000370
:01018C000171
:01018D000071
:01018E00026E
:01018F00036C
:01019000036B
:01019100026B
:010192000369
:010193000269
:010194000367
:010195000168
:010196000167
:010197000166
:010198000165
:010199000263
:01019A000361
:01019B000063
:01019C000062
:01019D00035E
:01019E00015F
:01019F00015E
:0101A000005E
:0101A100015C
:0101A2000359
:0101A3000358
:0101A400005A
:0101A5000257
:0101A6000058
:0101A7000354
:0101A8000254
:0101A9000154
:0101AA000351
:0101AB000053
:0101AC000151
:0101AD000051
:0101AE00024E
:0101AF00024D
:0101B000004E
:0101B100034A
:0101B200004C
:0101B3000249
:0101B4000248
:0101B5000148
:0101B6000147
:0101B7000245
:0101B8000244
:0101B9000243
:0101BA000143
:0101BB000340
:0101BC000141
:0101BD000140
:0101BE00033D
:0101BF00033C
:0101C000023C
:0101C100023B
:0101C200003C
:0101C3000239
:0101C4000238
:0101C5000237
:0101C6000335
:0101C7000037
:0101C8000135
:0101C9000233
:0101CA000232
:0101CB000231
:0101CC000131
:0101CD00022F
:0101CE00032D
:0101CF00012E
:0101D000022C
:0101D100002D
:0101D200012B
:0101D3000229
:0101D4000129
:0101D5000128
:0101D6000226
:0101D7000324
:0101D8000125
:0101D9000322
:0101DA000123
:0101DB000221
:0101DC00031F
:0101DD00031E
:0101DE00021E
:0101DF00001F
:0101E000011D
:0101E100001D
:0101E200011B
:0101E300001B
:0101E4000119
:0101E5000019
:0101E6000315
:0101E7000017
:0101E8000214
:0101E9000114
:0101EA000014
:0101EB000310
:0101EC00030F
:0101ED00020F
:0101EE00010F
:0101EF00000F
:0101F000020C
:0101F100030A
:0101F2000309
:0101F300010A
:0101F4000208
:0101F5000207
:0101F6000305
:0101F7000304
:0101F8000006
:0101F9000302
:0101FA000301
:0101FB000003
:0101FC000200
:0101FD000100
:0101FE000000
:0101FF0000FF
:00000001ff
