:020000040000FA
:0100000001FE
:0100010002FC
:0100020001FC
:0100030003F9
:0100040001FA
:0100050001F9
:0100060000F9
:0100070000F8
:0100080000F7
:0100090001F5
:01000A0000F5
:01000B0003F1
:01000C0003F0
:01000D0000F2
:01000E0002EF
:01000F0002EE
:0100100002ED
:0100110000EE
:0100120000ED
:0100130001EB
:0100140000EB
:0100150000EA
:0100160003E6
:0100170003E5
:0100180000E7
:0100190001E5
:01001A0003E2
:01001B0003E1
:01001C0001E2
:01001D0002E0
:01001E0001E0
:01001F0003DD
:0100200003DC
:0100210002DC
:0100220003DA
:0100230003D9
:0100240002D9
:0100250000DA
:0100260001D8
:0100270000D8
:0100280000D7
:0100290001D5
:01002A0002D3
:01002B0002D2
:01002C0002D1
:01002D0001D1
:01002E0003CE
:01002F0001CF
:0100300003CC
:0100310000CE
:0100320000CD
:0100330000CC
:0100340000CB
:0100350001C9
:0100360001C8
:0100370001C7
:0100380001C6
:0100390001C5
:01003A0001C4
:01003B0002C2
:01003C0002C1
:01003D0003BF
:01003E0000C1
:01003F0002BE
:0100400000BF
:0100410002BC
:0100420002BB
:0100430002BA
:0100440003B8
:0100450003B7
:0100460002B7
:0100470000B8
:0100480000B7
:0100490000B6
:01004A0002B3
:01004B0000B4
:01004C0000B3
:01004D0000B2
:01004E0002AF
:01004F0001AF
:0100500002AD
:0100510003AB
:0100520002AB
:0100530002AA
:0100540003A8
:0100550002A8
:0100560000A9
:0100570001A7
:0100580001A6
:0100590003A3
:01005A0001A4
:01005B0002A2
:01005C0001A2
:01005D0001A1
:01005E00039E
:01005F0000A0
:01006000029D
:01006100029C
:01006200009D
:01006300009C
:010064000299
:010065000298
:010066000198
:010067000296
:010068000097
:010069000195
:01006A000194
:01006B000292
:01006C000291
:01006D000191
:01006E00028F
:01006F00028E
:01007000008F
:01007100008E
:01007200008D
:01007300018B
:010074000289
:010075000189
:010076000386
:010077000088
:010078000384
:010079000185
:01007A000382
:01007B000381
:01007C000281
:01007D000082
:01007E000081
:01007F00017F
:01008000007F
:01008100027C
:01008200037A
:010083000379
:010084000378
:010085000278
:010086000079
:010087000177
:010088000176
:010089000274
:01008A000174
:01008B000371
:01008C000172
:01008D00036F
:01008E000071
:01008F000070
:01009000006F
:01009100006E
:01009200036A
:01009300026A
:01009400006B
:010095000169
:010096000366
:010097000167
:010098000166
:010099000264
:01009A000362
:01009B000361
:01009C000063
:01009D000062
:01009E000061
:01009F000060
:0100A000035C
:0100A100035B
:0100A200035A
:0100A300025A
:0100A4000358
:0100A5000357
:0100A6000257
:0100A7000355
:0100A8000255
:0100A9000254
:0100AA000352
:0100AB000054
:0100AC000152
:0100AD000151
:0100AE00034E
:0100AF00014F
:0100B000024D
:0100B100014D
:0100B200004D
:0100B300024A
:0100B400014A
:0100B5000149
:0100B6000247
:0100B7000246
:0100B8000344
:0100B9000145
:0100BA000342
:0100BB000143
:0100BC000142
:0100BD000042
:0100BE000041
:0100BF00013F
:0100C000023D
:0100C100003E
:0100C200003D
:0100C3000339
:0100C400003B
:0100C500003A
:0100C6000237
:0100C7000038
:0100C8000334
:0100C9000333
:0100CA000035
:0100CB000133
:0100CC000132
:0100CD000032
:0100CE00032E
:0100CF000030
:0100D000032C
:0100D100012D
:0100D200022B
:0100D300022A
:0100D400002B
:0100D5000327
:0100D6000326
:0100D7000028
:0100D8000126
:0100D9000125
:0100DA000025
:0100DB000123
:0100DC000320
:0100DD00031F
:0100DE000021
:0100DF00011F
:0100E000001F
:0100E100001E
:0100E200021B
:0100E300001C
:0100E400001B
:0100E5000119
:0100E6000316
:0100E7000216
:0100E8000314
:0100E9000115
:0100EA000114
:0100EB000113
:0100EC000310
:0100ED00030F
:0100EE000011
:0100EF00020E
:0100F000020D
:0100F100030B
:0100F200010C
:0100F300010B
:0100F4000308
:0100F5000208
:0100F6000306
:0100F7000008
:0100F8000007
:0100F9000105
:0100FA000302
:0100FB000301
:0100FC000003
:0100FD000002
:0100FE000100
:0100FF0003FD
:0101000003FB
:0101010001FC
:0101020000FC
:0101030001FA
:0101040003F7
:0101050000F9
:0101060002F6
:0101070002F5
:0101080002F4
:0101090002F3
:01010A0003F1
:01010B0001F2
:01010C0001F1
:01010D0003EE
:01010E0003ED
:01010F0001EE
:0101100001ED
:0101110002EB
:0101120001EB
:0101130003E8
:0101140001E9
:0101150002E7
:0101160001E7
:0101170001E6
:0101180003E3
:0101190000E5
:01011A0002E2
:01011B0002E1
:01011C0000E2
:01011D0000E1
:01011E0002DE
:01011F0002DD
:0101200000DE
:0101210003DA
:0101220001DB
:0101230001DA
:0101240003D7
:0101250003D6
:0101260000D8
:0101270001D6
:0101280003D3
:0101290003D2
:01012A0001D3
:01012B0001D2
:01012C0000D2
:01012D0000D1
:01012E0003CD
:01012F0003CC
:0101300003CB
:0101310003CA
:0101320003C9
:0101330000CB
:0101340003C7
:0101350001C8
:0101360001C7
:0101370003C4
:0101380002C4
:0101390002C3
:01013A0002C2
:01013B0001C2
:01013C0002C0
:01013D0001C0
:01013E0003BD
:01013F0003BC
:0101400001BD
:0101410001BC
:0101420000BC
:0101430001BA
:0101440000BA
:0101450002B7
:0101460002B6
:0101470000B7
:0101480001B5
:0101490003B2
:01014A0001B3
:01014B0000B3
:01014C0002B0
:01014D0003AE
:01014E0002AE
:01014F0003AC
:0101500003AB
:0101510000AD
:0101520001AB
:0101530000AB
:0101540001A9
:0101550000A9
:0101560002A6
:0101570003A4
:0101580002A4
:0101590003A2
:01015A0003A1
:01015B0002A1
:01015C00039F
:01015D00029F
:01015E0000A0
:01015F00019E
:01016000009E
:01016100019C
:01016200019B
:010163000398
:01016400009A
:010165000099
:010166000395
:010167000394
:010168000294
:010169000095
:01016A000094
:01016B000390
:01016C000191
:01016D000190
:01016E000090
:01016F00028D
:01017000018D
:01017100008D
:01017200028A
:01017300018A
:01017400008A
:010175000287
:010176000286
:010177000087
:010178000185
:010179000184
:01017A000381
:01017B000182
:01017C000181
:01017D000081
:01017E00017F
:01017F00017E
:01018000037B
:01018100017C
:01018200027A
:01018300007B
:010184000278
:010185000277
:010186000276
:010187000077
:010188000076
:010189000372
:01018A000272
:01018B000370
:01018C000270
:01018D00026F
:01018E00036D
:01018F00026D
:01019000026C
:01019100006D
:01019200006C
:010193000368
:010194000268
:010195000366
:010196000365
:010197000265
:010198000363
:010199000065
:01019A000361
:01019B000162
:01019C000161
:01019D000160
:01019E000060
:01019F00025D
:0101A000035B
:0101A100025B
:0101A200005C
:0101A3000259
:0101A4000258
:0101A5000158
:0101A6000256
:0101A7000057
:0101A8000353
:0101A9000253
:0101AA000054
:0101AB000053
:0101AC000052
:0101AD00024F
:0101AE00034D
:0101AF00034C
:0101B000034B
:0101B100014C
:0101B200024A
:0101B3000249
:0101B4000248
:0101B5000049
:0101B6000147
:0101B7000146
:0101B8000046
:0101B9000243
:0101BA000341
:0101BB000340
:0101BC000240
:0101BD000041
:0101BE00023E
:0101BF00023D
:0101C000013D
:0101C100033A
:0101C200013B
:0101C300013A
:0101C400003A
:0101C5000237
:0101C6000038
:0101C7000037
:0101C8000036
:0101C9000233
:0101CA000034
:0101CB000033
:0101CC000131
:0101CD00032E
:0101CE00022E
:0101CF00022D
:0101D000032B
:0101D100012C
:0101D200002C
:0101D300012A
:0101D4000228
:0101D5000227
:0101D6000028
:0101D7000225
:0101D8000323
:0101D9000322
:0101DA000222
:0101DB000023
:0101DC000220
:0101DD00031E
:0101DE00021E
:0101DF00011E
:0101E000001E
:0101E100011C
:0101E200011B
:0101E300001B
:0101E4000218
:0101E5000019
:0101E6000117
:0101E7000116
:0101E8000115
:0101E9000312
:0101EA000113
:0101EB000211
:0101EC000210
:0101ED000110
:0101EE00030D
:0101EF00010E
:0101F000020C
:0101F100010C
:0101F200010B
:0101F3000308
:0101F4000109
:0101F5000108
:0101F6000206
:0101F7000106
:0101F8000303
:0101F9000104
:0101FA000202
:0101FB000201
:0101FC000200
:0101FD000001
:0101FE0002FE
:0101FF0000FF
:00000001ff
