:020000040000FA
:0100000000FF
:0100010003FB
:0100020002FB
:0100030000FC
:0100040002F9
:0100050002F8
:0100060002F7
:0100070002F6
:0100080000F7
:0100090002F4
:01000A0003F2
:01000B0003F1
:01000C0003F0
:01000D0002F0
:01000E0001F0
:01000F0002EE
:0100100003EC
:0100110000EE
:0100120000ED
:0100130003E9
:0100140001EA
:0100150003E7
:0100160000E9
:0100170000E8
:0100180000E7
:0100190000E6
:01001A0002E3
:01001B0000E4
:01001C0002E1
:01001D0002E0
:01001E0003DE
:01001F0002DE
:0100200001DE
:0100210000DE
:0100220001DC
:0100230003D9
:0100240003D8
:0100250000DA
:0100260003D6
:0100270002D6
:0100280001D6
:0100290002D4
:01002A0000D5
:01002B0000D4
:01002C0001D2
:01002D0000D2
:01002E0003CE
:01002F0002CE
:0100300000CF
:0100310002CC
:0100320003CA
:0100330003C9
:0100340003C8
:0100350003C7
:0100360002C7
:0100370000C8
:0100380002C5
:0100390000C6
:01003A0001C4
:01003B0001C3
:01003C0001C2
:01003D0001C1
:01003E0000C1
:01003F0003BD
:0100400001BE
:0100410002BC
:0100420000BD
:0100430000BC
:0100440001BA
:0100450000BA
:0100460000B9
:0100470003B5
:0100480001B6
:0100490003B3
:01004A0001B4
:01004B0002B2
:01004C0003B0
:01004D0003AF
:01004E0003AE
:01004F0002AE
:0100500001AE
:0100510000AE
:0100520002AB
:0100530000AC
:0100540001AA
:0100550002A8
:0100560003A6
:0100570003A5
:0100580003A4
:0100590002A4
:01005A0001A4
:01005B0003A1
:01005C0002A1
:01005D00039F
:01005E0001A0
:01005F00029E
:01006000029D
:01006100039B
:01006200039A
:01006300029A
:01006400019A
:01006500009A
:010066000297
:010067000098
:010068000295
:010069000393
:01006A000095
:01006B000193
:01006C000192
:01006D000191
:01006E000190
:01006F000090
:01007000038C
:01007100018D
:01007200008D
:01007300018B
:010074000388
:01007500008A
:010076000188
:010077000286
:010078000285
:010079000284
:01007A000184
:01007B000084
:01007C000380
:01007D000280
:01007E000081
:01007F00027E
:01008000007F
:01008100017D
:01008200027B
:010083000379
:01008400007B
:01008500007A
:010086000079
:010087000375
:010088000374
:010089000274
:01008A000075
:01008B000371
:01008C000172
:01008D00036F
:01008E000071
:01008F00026E
:01009000036C
:01009100036B
:01009200006D
:01009300006C
:01009400006B
:010095000367
:010096000366
:010097000266
:010098000166
:010099000363
:01009A000164
:01009B000361
:01009C000162
:01009D00035F
:01009E000061
:01009F00015F
:0100A000025D
:0100A100025C
:0100A200025B
:0100A300025A
:0100A4000259
:0100A5000258
:0100A6000158
:0100A7000058
:0100A8000354
:0100A9000155
:0100AA000352
:0100AB000252
:0100AC000350
:0100AD000151
:0100AE00024F
:0100AF00034D
:0100B000004F
:0100B100014D
:0100B200014C
:0100B300014B
:0100B400014A
:0100B5000149
:0100B6000148
:0100B7000048
:0100B8000344
:0100B9000244
:0100BA000045
:0100BB000341
:0100BC000142
:0100BD00033F
:0100BE000140
:0100BF00023E
:0100C000003F
:0100C100013D
:0100C200023B
:0100C300023A
:0100C4000338
:0100C5000337
:0100C6000336
:0100C7000335
:0100C8000334
:0100C9000234
:0100CA000233
:0100CB000133
:0100CC000033
:0100CD00032F
:0100CE000130
:0100CF00032D
:0100D000012E
:0100D100032B
:0100D200012C
:0100D3000329
:0100D400002B
:0100D5000129
:0100D6000227
:0100D7000325
:0100D8000027
:0100D9000026
:0100DA000025
:0100DB000024
:0100DC000023
:0100DD000022
:0100DE000021
:0100DF00031D
:0100E000021D
:0100E100011D
:0100E200001D
:0100E3000319
:0100E400011A
:0100E5000317
:0100E6000118
:0100E7000315
:0100E8000116
:0100E9000313
:0100EA000015
:0100EB000212
:0100EC000310
:0100ED000012
:0100EE000110
:0100EF00010F
:0100F000020D
:0100F100020C
:0100F200020B
:0100F300020A
:0100F4000209
:0100F5000208
:0100F6000108
:0100F7000107
:0100F8000007
:0100F9000303
:0100FA000203
:0100FB000004
:0100FC000300
:0100FD000200
:0100FE000001
:0100FF0002FE
:0101000000FE
:0101010002FB
:0101020000FC
:0101030001FA
:0101040002F8
:0101050000F9
:0101060001F7
:0101070002F5
:0101080003F3
:0101090003F2
:01010A0000F4
:01010B0000F3
:01010C0001F1
:01010D0001F0
:01010E0001EF
:01010F0001EE
:0101100000EE
:0101110000ED
:0101120003E9
:0101130003E8
:0101140002E8
:0101150001E8
:0101160000E8
:0101170003E4
:0101180001E5
:0101190000E5
:01011A0002E2
:01011B0000E3
:01011C0003DF
:01011D0001E0
:01011E0002DE
:01011F0000DF
:0101200002DC
:0101210003DA
:0101220001DB
:0101230002D9
:0101240003D7
:0101250000D9
:0101260001D7
:0101270002D5
:0101280002D4
:0101290003D2
:01012A0003D1
:01012B0003D0
:01012C0000D2
:01012D0000D1
:01012E0003CD
:01012F0003CC
:0101300003CB
:0101310002CB
:0101320002CA
:0101330001CA
:0101340000CA
:0101350000C9
:0101360003C5
:0101370001C6
:0101380000C6
:0101390003C2
:01013A0001C3
:01013B0000C3
:01013C0002C0
:01013D0000C1
:01013E0002BE
:01013F0000BF
:0101400002BC
:0101410000BD
:0101420002BA
:0101430003B8
:0101440001B9
:0101450002B7
:0101460003B5
:0101470001B6
:0101480002B4
:0101490002B3
:01014A0003B1
:01014B0000B3
:01014C0001B1
:01014D0001B0
:01014E0002AE
:01014F0002AD
:0101500002AC
:0101510002AB
:0101520002AA
:0101530002A9
:0101540002A8
:0101550002A7
:0101560001A7
:0101570001A6
:0101580000A6
:0101590000A5
:01015A0003A1
:01015B0002A1
:01015C0001A1
:01015D0000A1
:01015E00039D
:01015F00029D
:01016000019D
:01016100039A
:01016200029A
:01016300009B
:010164000298
:010165000198
:010166000395
:010167000196
:010168000393
:010169000194
:01016A000292
:01016B000093
:01016C000290
:01016D00038E
:01016E00018F
:01016F00028D
:01017000038B
:01017100008D
:01017200018B
:010173000289
:010174000387
:010175000089
:010176000187
:010177000285
:010178000284
:010179000382
:01017A000381
:01017B000380
:01017C000082
:01017D000081
:01017E000080
:01017F00007F
:01018000007E
:01018100007D
:010182000379
:010183000378
:010184000377
:010185000277
:010186000276
:010187000176
:010188000076
:010189000372
:01018A000371
:01018B000271
:01018C000171
:01018D000071
:01018E00026E
:01018F00016E
:01019000006E
:01019100036A
:01019200016B
:010193000368
:010194000268
:010195000069
:010196000266
:010197000166
:010198000363
:010199000164
:01019A000361
:01019B000162
:01019C000260
:01019D000061
:01019E00025E
:01019F00035C
:0101A000015D
:0101A100025B
:0101A200005C
:0101A300015A
:0101A4000258
:0101A5000059
:0101A6000157
:0101A7000255
:0101A8000353
:0101A9000055
:0101AA000153
:0101AB000152
:0101AC000250
:0101AD00034E
:0101AE00034D
:0101AF00004F
:0101B000004E
:0101B100014C
:0101B200014B
:0101B300014A
:0101B4000149
:0101B5000247
:0101B6000246
:0101B7000245
:0101B8000244
:0101B9000144
:0101BA000143
:0101BB000142
:0101BC000141
:0101BD000041
:0101BE000040
:0101BF00033C
:0101C000033B
:0101C100023B
:0101C200023A
:0101C300013A
:0101C400003A
:0101C5000336
:0101C6000236
:0101C7000136
:0101C8000036
:0101C9000332
:0101CA000232
:0101CB000132
:0101CC000032
:0101CD00022F
:0101CE00012F
:0101CF00032C
:0101D000022C
:0101D100002D
:0101D2000329
:0101D300012A
:0101D4000327
:0101D5000227
:0101D6000028
:0101D7000225
:0101D8000026
:0101D9000223
:0101DA000024
:0101DB000221
:0101DC000022
:0101DD000120
:0101DE00031D
:0101DF00011E
:0101E000031B
:0101E100001D
:0101E200021A
:0101E3000318
:0101E400001A
:0101E5000217
:0101E6000315
:0101E7000017
:0101E8000214
:0101E9000312
:0101EA000014
:0101EB000112
:0101EC000210
:0101ED00030E
:0101EE000010
:0101EF00010E
:0101F000010D
:0101F100020B
:0101F2000309
:0101F3000308
:0101F400000A
:0101F5000108
:0101F6000107
:0101F7000205
:0101F8000204
:0101F9000203
:0101FA000301
:0101FB000300
:0101FC0003FF
:0101FD0003FE
:0101FE0003FD
:0101FF0000FF
:00000001ff
