:020000040000FA
:0100000000FF
:0100010002FC
:0100020000FD
:0100030002FA
:0100040000FB
:0100050002F8
:0100060000F9
:0100070002F6
:0100080000F7
:0100090002F4
:01000A0000F5
:01000B0002F2
:01000C0000F3
:01000D0002F0
:01000E0000F1
:01000F0002EE
:0100100000EF
:0100110003EB
:0100120001EC
:0100130003E9
:0100140001EA
:0100150003E7
:0100160001E8
:0100170003E5
:0100180002E5
:0100190000E6
:01001A0002E3
:01001B0000E4
:01001C0002E1
:01001D0001E1
:01001E0003DE
:01001F0001DF
:0100200003DC
:0100210001DD
:0100220000DD
:0100230002DA
:0100240000DB
:0100250002D8
:0100260001D8
:0100270003D5
:0100280001D6
:0100290000D6
:01002A0002D3
:01002B0000D4
:01002C0002D1
:01002D0001D1
:01002E0003CE
:01002F0001CF
:0100300000CF
:0100310002CC
:0100320000CD
:0100330003C9
:0100340001CA
:0100350003C7
:0100360002C7
:0100370000C8
:0100380003C4
:0100390001C5
:01003A0003C2
:01003B0002C2
:01003C0000C3
:01003D0002C0
:01003E0001C0
:01003F0003BD
:0100400002BD
:0100410000BE
:0100420003BA
:0100430001BB
:0100440003B8
:0100450002B8
:0100460000B9
:0100470003B5
:0100480001B6
:0100490000B6
:01004A0002B3
:01004B0001B3
:01004C0003B0
:01004D0002B0
:01004E0000B1
:01004F0003AD
:0100500001AE
:0100510000AE
:0100520002AB
:0100530001AB
:0100540003A8
:0100550002A8
:0100560000A9
:0100570003A5
:0100580001A6
:0100590000A6
:01005A0002A3
:01005B0001A3
:01005C0000A3
:01005D0002A0
:01005E0001A0
:01005F00039D
:01006000029D
:01006100009E
:01006200039A
:01006300029A
:01006400009B
:010065000397
:010066000198
:010067000098
:010068000394
:010069000195
:01006A000095
:01006B000292
:01006C000192
:01006D000092
:01006E00028F
:01006F00018F
:01007000008F
:01007100028C
:01007200018C
:01007300008C
:010074000289
:010075000189
:010076000089
:010077000286
:010078000186
:010079000086
:01007A000283
:01007B000183
:01007C000083
:01007D00037F
:01007E000180
:01007F000080
:01008000037C
:01008100017D
:01008200007D
:010083000379
:010084000279
:01008500007A
:010086000376
:010087000276
:010088000176
:010089000373
:01008A000273
:01008B000173
:01008C000073
:01008D000270
:01008E000170
:01008F000070
:01009000036C
:01009100026C
:01009200006D
:010093000369
:010094000269
:010095000169
:010096000366
:010097000266
:010098000166
:010099000066
:01009A000362
:01009B000262
:01009C000063
:01009D00035F
:01009E00025F
:01009F00015F
:0100A000005F
:0100A100035B
:0100A200015C
:0100A300005C
:0100A4000358
:0100A5000258
:0100A6000158
:0100A7000058
:0100A8000354
:0100A9000155
:0100AA000055
:0100AB000351
:0100AC000251
:0100AD000151
:0100AE000051
:0100AF00034D
:0100B000024D
:0100B100004E
:0100B200034A
:0100B300024A
:0100B400014A
:0100B500004A
:0100B6000346
:0100B7000246
:0100B8000146
:0100B9000046
:0100BA000342
:0100BB000242
:0100BC000043
:0100BD00033F
:0100BE00023F
:0100BF00013F
:0100C000003F
:0100C100033B
:0100C200023B
:0100C300013B
:0100C400003B
:0100C5000337
:0100C6000237
:0100C7000137
:0100C8000037
:0100C9000333
:0100CA000233
:0100CB000133
:0100CC000033
:0100CD00032F
:0100CE00022F
:0100CF00012F
:0100D000002F
:0100D100032B
:0100D200022B
:0100D300012B
:0100D400002B
:0100D5000327
:0100D6000227
:0100D7000127
:0100D8000027
:0100D9000323
:0100DA000223
:0100DB000123
:0100DC000023
:0100DD00031F
:0100DE00021F
:0100DF00011F
:0100E000001F
:0100E100031B
:0100E200021B
:0100E300011B
:0100E400001B
:0100E5000317
:0100E6000217
:0100E7000117
:0100E8000017
:0100E9000313
:0100EA000213
:0100EB000113
:0100EC000013
:0100ED00030F
:0100EE00030E
:0100EF00020E
:0100F000010E
:0100F100000E
:0100F200030A
:0100F300020A
:0100F400010A
:0100F500000A
:0100F6000306
:0100F7000206
:0100F8000106
:0100F9000006
:0100FA000005
:0100FB000301
:0100FC000201
:0100FD000101
:0100FE000001
:0100FF0003FD
:0101000002FC
:0101010001FC
:0101020000FC
:0101030000FB
:0101040003F7
:0101050002F7
:0101060001F7
:0101070000F7
:0101080003F3
:0101090002F3
:01010A0001F3
:01010B0001F2
:01010C0000F2
:01010D0003EE
:01010E0002EE
:01010F0001EE
:0101100000EE
:0101110003EA
:0101120003E9
:0101130002E9
:0101140001E9
:0101150000E9
:0101160003E5
:0101170002E5
:0101180001E5
:0101190001E4
:01011A0000E4
:01011B0003E0
:01011C0002E0
:01011D0001E0
:01011E0001DF
:01011F0000DF
:0101200003DB
:0101210002DB
:0101220001DB
:0101230000DB
:0101240000DA
:0101250003D6
:0101260002D6
:0101270001D6
:0101280000D6
:0101290000D5
:01012A0003D1
:01012B0002D1
:01012C0001D1
:01012D0000D1
:01012E0000D0
:01012F0003CC
:0101300002CC
:0101310001CC
:0101320000CC
:0101330000CB
:0101340003C7
:0101350002C7
:0101360001C7
:0101370001C6
:0101380000C6
:0101390003C2
:01013A0002C2
:01013B0001C2
:01013C0001C1
:01013D0000C1
:01013E0003BD
:01013F0002BD
:0101400002BC
:0101410001BC
:0101420000BC
:0101430003B8
:0101440003B7
:0101450002B7
:0101460001B7
:0101470000B7
:0101480000B6
:0101490003B2
:01014A0002B2
:01014B0001B2
:01014C0001B1
:01014D0000B1
:01014E0003AD
:01014F0002AD
:0101500002AC
:0101510001AC
:0101520000AC
:0101530000AB
:0101540003A7
:0101550002A7
:0101560001A7
:0101570001A6
:0101580000A6
:0101590003A2
:01015A0003A1
:01015B0002A1
:01015C0001A1
:01015D0000A1
:01015E0000A0
:01015F00039C
:01016000029C
:01016100029B
:01016200019B
:01016300009B
:01016400009A
:010165000396
:010166000296
:010167000196
:010168000195
:010169000095
:01016A000391
:01016B000390
:01016C000290
:01016D000190
:01016E00018F
:01016F00008F
:01017000038B
:01017100038A
:01017200028A
:01017300018A
:010174000189
:010175000089
:010176000385
:010177000384
:010178000284
:010179000184
:01017A000183
:01017B000083
:01017C00037F
:01017D00037E
:01017E00027E
:01017F00017E
:01018000017D
:01018100007D
:010182000379
:010183000378
:010184000278
:010185000178
:010186000177
:010187000077
:010188000373
:010189000372
:01018A000272
:01018B000271
:01018C000171
:01018D000071
:01018E000070
:01018F00036C
:01019000026C
:01019100026B
:01019200016B
:01019300006B
:01019400006A
:010195000366
:010196000365
:010197000265
:010198000165
:010199000164
:01019A000064
:01019B000063
:01019C00035F
:01019D00025F
:01019E00025E
:01019F00015E
:0101A000005E
:0101A100005D
:0101A2000359
:0101A3000358
:0101A4000258
:0101A5000158
:0101A6000157
:0101A7000057
:0101A8000056
:0101A9000352
:0101AA000252
:0101AB000251
:0101AC000151
:0101AD000150
:0101AE000050
:0101AF00034C
:0101B000034B
:0101B100024B
:0101B200024A
:0101B300014A
:0101B4000149
:0101B5000049
:0101B6000345
:0101B7000344
:0101B8000244
:0101B9000243
:0101BA000143
:0101BB000043
:0101BC000042
:0101BD00033E
:0101BE00033D
:0101BF00023D
:0101C000023C
:0101C100013C
:0101C200003C
:0101C300003B
:0101C4000337
:0101C5000336
:0101C6000236
:0101C7000235
:0101C8000135
:0101C9000134
:0101CA000034
:0101CB000330
:0101CC00032F
:0101CD00022F
:0101CE00022E
:0101CF00012E
:0101D000012D
:0101D100002D
:0101D200002C
:0101D3000328
:0101D4000228
:0101D5000227
:0101D6000127
:0101D7000126
:0101D8000026
:0101D9000025
:0101DA000321
:0101DB000320
:0101DC000220
:0101DD00021F
:0101DE00011F
:0101DF00011E
:0101E000001E
:0101E100031A
:0101E2000319
:0101E3000219
:0101E4000218
:0101E5000118
:0101E6000117
:0101E7000017
:0101E8000016
:0101E9000312
:0101EA000311
:0101EB000211
:0101EC000210
:0101ED000110
:0101EE00010F
:0101EF00000F
:0101F000000E
:0101F100030A
:0101F2000309
:0101F3000209
:0101F4000208
:0101F5000108
:0101F6000107
:0101F7000007
:0101F8000006
:0101F9000302
:0101FA000301
:0101FB000201
:0101FC000200
:0101FD000100
:0101FE0001FF
:0101FF0000FF
:00000001ff
