:020000040000FA
:0100000000FF
:0100010000FE
:0100020000FD
:0100030001FB
:0100040000FB
:0100050001F9
:0100060000F9
:0100070001F7
:0100080003F4
:0100090001F5
:01000A0001F4
:01000B0000F4
:01000C0000F3
:01000D0003EF
:01000E0000F1
:01000F0000F0
:0100100001EE
:0100110003EB
:0100120000ED
:0100130003E9
:0100140002E9
:0100150003E7
:0100160001E8
:0100170000E8
:0100180000E7
:0100190003E3
:01001A0003E2
:01001B0000E4
:01001C0002E1
:01001D0003DF
:01001E0000E1
:01001F0002DE
:0100200000DF
:0100210000DE
:0100220000DD
:0100230003D9
:0100240000DB
:0100250002D8
:0100260001D8
:0100270001D7
:0100280001D6
:0100290003D3
:01002A0002D3
:01002B0000D4
:01002C0001D2
:01002D0000D2
:01002E0001D0
:01002F0002CE
:0100300002CD
:0100310003CB
:0100320000CD
:0100330003C9
:0100340003C8
:0100350003C7
:0100360000C9
:0100370001C7
:0100380002C5
:0100390003C3
:01003A0000C5
:01003B0002C2
:01003C0003C0
:01003D0002C0
:01003E0002BF
:01003F0003BD
:0100400001BE
:0100410000BE
:0100420002BB
:0100430002BA
:0100440003B8
:0100450000BA
:0100460002B7
:0100470002B6
:0100480003B4
:0100490000B6
:01004A0001B4
:01004B0002B2
:01004C0003B0
:01004D0001B1
:01004E0003AE
:01004F0003AD
:0100500001AE
:0100510003AB
:0100520002AB
:0100530003A9
:0100540000AB
:0100550002A8
:0100560003A6
:0100570003A5
:0100580002A5
:0100590003A3
:01005A0002A3
:01005B0000A4
:01005C0001A2
:01005D0000A2
:01005E0000A1
:01005F0000A0
:01006000019E
:01006100029C
:01006200039A
:01006300009C
:01006400019A
:01006500009A
:010066000396
:010067000098
:010068000196
:010069000195
:01006A000293
:01006B000292
:01006C000291
:01006D00038F
:01006E00038E
:01006F000090
:01007000008F
:01007100028C
:01007200038A
:010073000389
:010074000388
:010075000288
:010076000089
:010077000385
:010078000285
:010079000185
:01007A000382
:01007B000381
:01007C000281
:01007D000280
:01007E000180
:01007F00017F
:01008000037C
:01008100007E
:01008200037A
:01008300027A
:01008400007B
:010085000377
:010086000079
:010087000375
:010088000275
:010089000175
:01008A000372
:01008B000173
:01008C000073
:01008D000171
:01008E000071
:01008F00016F
:01009000036C
:01009100006E
:01009200026B
:010093000369
:010094000269
:010095000268
:010096000168
:010097000167
:010098000364
:010099000066
:01009A000065
:01009B000262
:01009C000162
:01009D000161
:01009E000160
:01009F00015F
:0100A000015E
:0100A100035B
:0100A200015C
:0100A300025A
:0100A400015A
:0100A500005A
:0100A6000356
:0100A7000157
:0100A8000057
:0100A9000056
:0100AA000154
:0100AB000054
:0100AC000251
:0100AD000052
:0100AE00034E
:0100AF00034D
:0100B000034C
:0100B100034B
:0100B200004D
:0100B300014B
:0100B4000249
:0100B5000149
:0100B6000346
:0100B7000345
:0100B8000344
:0100B9000343
:0100BA000342
:0100BB000044
:0100BC000043
:0100BD000240
:0100BE000041
:0100BF000040
:0100C000013E
:0100C100013D
:0100C200023B
:0100C300013B
:0100C4000239
:0100C5000238
:0100C6000336
:0100C7000038
:0100C8000037
:0100C9000234
:0100CA000233
:0100CB000232
:0100CC000231
:0100CD000230
:0100CE000130
:0100CF00022E
:0100D000012E
:0100D100032B
:0100D200012C
:0100D300012B
:0100D4000328
:0100D5000129
:0100D6000128
:0100D7000226
:0100D8000126
:0100D9000125
:0100DA000025
:0100DB000123
:0100DC000122
:0100DD000022
:0100DE00021F
:0100DF00021E
:0100E000021D
:0100E100001E
:0100E200011C
:0100E300011B
:0100E4000219
:0100E500001A
:0100E6000019
:0100E7000018
:0100E8000116
:0100E9000313
:0100EA000015
:0100EB000212
:0100EC000211
:0100ED000012
:0100EE000011
:0100EF00020E
:0100F000030C
:0100F100020C
:0100F200010C
:0100F300000C
:0100F4000209
:0100F5000109
:0100F6000207
:0100F7000008
:0100F8000106
:0100F9000204
:0100FA000302
:0100FB000004
:0100FC000102
:0100FD0003FF
:0100FE000100
:0100FF0001FF
:0101000003FB
:0101010003FA
:0101020001FB
:0101030000FB
:0101040002F8
:0101050001F8
:0101060001F7
:0101070000F7
:0101080002F4
:0101090000F5
:01010A0002F2
:01010B0003F0
:01010C0002F0
:01010D0002EF
:01010E0002EE
:01010F0001EE
:0101100002EC
:0101110002EB
:0101120002EA
:0101130002E9
:0101140002E8
:0101150001E8
:0101160003E5
:0101170003E4
:0101180001E5
:0101190003E2
:01011A0003E1
:01011B0003E0
:01011C0003DF
:01011D0000E1
:01011E0000E0
:01011F0000DF
:0101200003DB
:0101210002DB
:0101220001DB
:0101230003D8
:0101240000DA
:0101250001D8
:0101260002D6
:0101270002D5
:0101280003D3
:0101290000D5
:01012A0001D3
:01012B0000D3
:01012C0000D2
:01012D0001D0
:01012E0001CF
:01012F0003CC
:0101300000CE
:0101310001CC
:0101320002CA
:0101330000CB
:0101340003C7
:0101350001C8
:0101360001C7
:0101370001C6
:0101380002C4
:0101390003C2
:01013A0003C1
:01013B0002C1
:01013C0001C1
:01013D0001C0
:01013E0002BE
:01013F0003BC
:0101400003BB
:0101410001BC
:0101420001BB
:0101430000BB
:0101440000BA
:0101450002B7
:0101460003B5
:0101470000B7
:0101480003B3
:0101490001B4
:01014A0000B4
:01014B0000B3
:01014C0000B2
:01014D0000B1
:01014E0003AD
:01014F0002AD
:0101500002AC
:0101510002AB
:0101520002AA
:0101530000AB
:0101540003A7
:0101550003A6
:0101560003A5
:0101570000A7
:0101580000A6
:0101590002A3
:01015A0002A2
:01015B0003A0
:01015C0002A0
:01015D00039E
:01015E00029E
:01015F00019E
:01016000039B
:01016100029B
:01016200009C
:010163000398
:010164000199
:010165000099
:010166000296
:010167000394
:010168000393
:010169000293
:01016A000193
:01016B000390
:01016C000290
:01016D000190
:01016E00028E
:01016F00038C
:01017000008E
:01017100028B
:010172000389
:01017300008B
:010174000189
:010175000287
:010176000187
:010177000186
:010178000185
:010179000382
:01017A000282
:01017B000083
:01017C000181
:01017D00037E
:01017E00017F
:01017F00027D
:01018000017D
:01018100007D
:01018200027A
:010183000378
:010184000179
:010185000079
:010186000177
:010187000176
:010188000274
:010189000075
:01018A000173
:01018B000073
:01018C000171
:01018D00026F
:01018E000070
:01018F00016E
:01019000036B
:01019100006D
:01019200016B
:010193000269
:010194000268
:010195000168
:010196000266
:010197000067
:010198000363
:010199000263
:01019A000064
:01019B000162
:01019C000161
:01019D00025F
:01019E000060
:01019F00035C
:0101A000025C
:0101A100015C
:0101A200005C
:0101A300015A
:0101A4000159
:0101A5000356
:0101A6000355
:0101A7000057
:0101A8000353
:0101A9000253
:0101AA000252
:0101AB000251
:0101AC000250
:0101AD00024F
:0101AE00024E
:0101AF00014E
:0101B000034B
:0101B100004D
:0101B200004C
:0101B3000348
:0101B400004A
:0101B5000049
:0101B6000246
:0101B7000344
:0101B8000244
:0101B9000045
:0101BA000044
:0101BB000241
:0101BC00033F
:0101BD00023F
:0101BE00033D
:0101BF00033C
:0101C000023C
:0101C100003D
:0101C200003C
:0101C3000338
:0101C4000238
:0101C5000039
:0101C6000137
:0101C7000334
:0101C8000036
:0101C9000134
:0101CA000331
:0101CB000231
:0101CC000131
:0101CD00022F
:0101CE000030
:0101CF00012E
:0101D000032B
:0101D100012C
:0101D200012B
:0101D300012A
:0101D400002A
:0101D5000029
:0101D6000028
:0101D7000225
:0101D8000125
:0101D9000223
:0101DA000123
:0101DB000023
:0101DC000220
:0101DD000021
:0101DE00031D
:0101DF00031C
:0101E000001E
:0101E100001D
:0101E2000319
:0101E3000219
:0101E4000119
:0101E5000019
:0101E6000117
:0101E7000017
:0101E8000214
:0101E9000312
:0101EA000113
:0101EB000310
:0101EC000012
:0101ED00020F
:0101EE000010
:0101EF00020D
:0101F000000E
:0101F100010C
:0101F2000309
:0101F300010A
:0101F4000208
:0101F5000108
:0101F6000107
:0101F7000007
:0101F8000204
:0101F9000104
:0101FA000103
:0101FB000300
:0101FC000002
:0101FD0002FF
:0101FE000000
:0101FF0000FF
:00000001ff
