:020000040000FA
:0100000000FF
:0100010003FB
:0100020003FA
:0100030000FC
:0100040000FB
:0100050000FA
:0100060001F8
:0100070001F7
:0100080001F6
:0100090002F4
:01000A0001F4
:01000B0001F3
:01000C0001F2
:01000D0000F2
:01000E0002EF
:01000F0002EE
:0100100003EC
:0100110001ED
:0100120003EA
:0100130001EB
:0100140001EA
:0100150000EA
:0100160003E6
:0100170000E8
:0100180001E6
:0100190001E5
:01001A0001E4
:01001B0002E2
:01001C0002E1
:01001D0002E0
:01001E0003DE
:01001F0000E0
:0100200001DE
:0100210003DB
:0100220001DC
:0100230003D9
:0100240003D8
:0100250003D7
:0100260002D7
:0100270002D6
:0100280003D4
:0100290003D3
:01002A0001D4
:01002B0003D1
:01002C0002D1
:01002D0001D1
:01002E0000D1
:01002F0001CF
:0100300000CF
:0100310002CC
:0100320001CC
:0100330000CC
:0100340000CB
:0100350000CA
:0100360002C7
:0100370000C8
:0100380000C7
:0100390001C5
:01003A0000C5
:01003B0000C4
:01003C0000C3
:01003D0003BF
:01003E0002BF
:01003F0000C0
:0100400000BF
:0100410003BB
:0100420002BB
:0100430003B9
:0100440000BB
:0100450001B9
:0100460001B8
:0100470001B7
:0100480000B7
:0100490000B6
:01004A0003B2
:01004B0003B1
:01004C0000B3
:01004D0001B1
:01004E0003AE
:01004F0000B0
:0100500000AF
:0100510003AB
:0100520001AC
:0100530000AC
:0100540002A9
:0100550000AA
:0100560003A6
:0100570002A6
:0100580001A6
:0100590000A6
:01005A0002A3
:01005B0003A1
:01005C0002A1
:01005D00039F
:01005E0001A0
:01005F00019F
:01006000019E
:01006100029C
:01006200009D
:01006300009C
:01006400009B
:010065000397
:010066000198
:010067000197
:010068000394
:010069000294
:01006A000293
:01006B000391
:01006C000192
:01006D000290
:01006E000091
:01006F00018F
:01007000008F
:01007100038B
:01007200008D
:010073000389
:010074000388
:010075000189
:010076000089
:010077000088
:010078000087
:010079000086
:01007A000085
:01007B000084
:01007C000281
:01007D00037F
:01007E00037E
:01007F00017F
:01008000007F
:01008100027C
:01008200007D
:010083000379
:010084000378
:01008500007A
:010086000079
:010087000078
:010088000374
:010089000274
:01008A000075
:01008B000074
:01008C000271
:01008D000270
:01008E000071
:01008F000070
:01009000006F
:01009100016D
:01009200036A
:01009300026A
:01009400006B
:010095000268
:010096000069
:010097000068
:010098000067
:010099000264
:01009A000362
:01009B000262
:01009C000360
:01009D000260
:01009E000160
:01009F00025E
:0100A000005F
:0100A100035B
:0100A200025B
:0100A300015B
:0100A4000358
:0100A5000258
:0100A6000059
:0100A7000157
:0100A8000057
:0100A9000353
:0100AA000055
:0100AB000351
:0100AC000350
:0100AD000250
:0100AE00024F
:0100AF00034D
:0100B000024D
:0100B100014D
:0100B200004D
:0100B300004C
:0100B400004B
:0100B500004A
:0100B6000346
:0100B7000246
:0100B8000047
:0100B9000046
:0100BA000045
:0100BB000242
:0100BC000340
:0100BD000141
:0100BE00023F
:0100BF000040
:0100C000033C
:0100C100003E
:0100C200023B
:0100C300003C
:0100C400003B
:0100C5000337
:0100C6000336
:0100C7000335
:0100C8000235
:0100C9000234
:0100CA000035
:0100CB000232
:0100CC000330
:0100CD00032F
:0100CE000130
:0100CF00012F
:0100D000002F
:0100D100012D
:0100D200002D
:0100D300002C
:0100D4000229
:0100D5000129
:0100D6000128
:0100D7000226
:0100D8000027
:0100D9000323
:0100DA000124
:0100DB000024
:0100DC000320
:0100DD000220
:0100DE000021
:0100DF00011F
:0100E000021D
:0100E100021C
:0100E200011C
:0100E3000319
:0100E4000318
:0100E5000218
:0100E6000316
:0100E7000216
:0100E8000314
:0100E9000115
:0100EA000114
:0100EB000311
:0100EC000112
:0100ED000111
:0100EE00020F
:0100EF00030D
:0100F000010E
:0100F100030B
:0100F200020B
:0100F300000C
:0100F4000308
:0100F5000109
:0100F6000306
:0100F7000008
:0100F8000106
:0100F9000105
:0100FA000005
:0100FB000103
:0100FC000102
:0100FD000002
:0100FE000100
:0100FF0001FF
:0101000002FC
:0101010002FB
:0101020003F9
:0101030002F9
:0101040002F8
:0101050003F6
:0101060002F6
:0101070002F5
:0101080003F3
:0101090000F5
:01010A0003F1
:01010B0001F2
:01010C0000F2
:01010D0003EE
:01010E0003ED
:01010F0002ED
:0101100001ED
:0101110003EA
:0101120002EA
:0101130003E8
:0101140000EA
:0101150000E9
:0101160002E6
:0101170000E7
:0101180001E5
:0101190000E5
:01011A0001E3
:01011B0001E2
:01011C0003DF
:01011D0003DE
:01011E0001DF
:01011F0000DF
:0101200002DC
:0101210001DC
:0101220001DB
:0101230003D8
:0101240002D8
:0101250002D7
:0101260003D5
:0101270000D7
:0101280003D3
:0101290002D3
:01012A0001D3
:01012B0001D2
:01012C0001D1
:01012D0001D0
:01012E0001CF
:01012F0001CE
:0101300000CE
:0101310003CA
:0101320002CA
:0101330000CB
:0101340002C8
:0101350002C7
:0101360002C6
:0101370000C7
:0101380001C5
:0101390001C4
:01013A0000C4
:01013B0001C2
:01013C0001C1
:01013D0002BF
:01013E0002BE
:01013F0000BF
:0101400000BE
:0101410002BB
:0101420001BB
:0101430002B9
:0101440001B9
:0101450001B8
:0101460002B6
:0101470001B6
:0101480000B6
:0101490001B4
:01014A0002B2
:01014B0000B3
:01014C0003AF
:01014D0003AE
:01014E0003AD
:01014F0003AC
:0101500003AB
:0101510000AD
:0101520001AB
:0101530002A9
:0101540002A8
:0101550003A6
:0101560003A5
:0101570003A4
:0101580002A4
:0101590000A5
:01015A0002A2
:01015B0003A0
:01015C0000A2
:01015D00039E
:01015E00019F
:01015F00029D
:01016000019D
:01016100009D
:01016200019B
:01016300009B
:010164000298
:010165000297
:010166000098
:010167000097
:010168000294
:010169000293
:01016A000094
:01016B000093
:01016C000191
:01016D000091
:01016E000090
:01016F00028D
:01017000018D
:01017100018C
:01017200028A
:01017300018A
:01017400008A
:010175000089
:010176000187
:010177000384
:010178000185
:010179000085
:01017A000381
:01017B000380
:01017C00037F
:01017D00037E
:01017E000080
:01017F00007F
:01018000007E
:01018100007D
:01018200007C
:01018300007B
:010184000377
:010185000277
:010186000177
:010187000275
:010188000076
:010189000075
:01018A000074
:01018B000271
:01018C000072
:01018D000170
:01018E000070
:01018F00026D
:01019000036B
:01019100036A
:01019200016B
:010193000269
:010194000169
:010195000366
:010196000365
:010197000166
:010198000165
:010199000362
:01019A000361
:01019B000261
:01019C000260
:01019D00035E
:01019E00035D
:01019F00005F
:0101A000035B
:0101A100035A
:0101A200005C
:0101A3000358
:0101A400005A
:0101A5000158
:0101A6000058
:0101A7000354
:0101A8000056
:0101A9000253
:0101AA000054
:0101AB000053
:0101AC000052
:0101AD000150
:0101AE00024E
:0101AF00004F
:0101B000034B
:0101B100014C
:0101B200014B
:0101B300004B
:0101B400004A
:0101B5000049
:0101B6000048
:0101B7000047
:0101B8000046
:0101B9000045
:0101BA000044
:0101BB000340
:0101BC00033F
:0101BD00023F
:0101BE000040
:0101BF00023D
:0101C000003E
:0101C100013C
:0101C200023A
:0101C300013A
:0101C400003A
:0101C5000237
:0101C6000335
:0101C7000037
:0101C8000333
:0101C9000134
:0101CA000232
:0101CB000231
:0101CC000131
:0101CD00022F
:0101CE00022E
:0101CF00012E
:0101D000022C
:0101D100022B
:0101D200002C
:0101D300002B
:0101D4000327
:0101D5000029
:0101D6000325
:0101D7000027
:0101D8000026
:0101D9000124
:0101DA000123
:0101DB000221
:0101DC000121
:0101DD00021F
:0101DE00011F
:0101DF00021D
:0101E000001E
:0101E100001D
:0101E200011B
:0101E300001B
:0101E400001A
:0101E5000217
:0101E6000018
:0101E7000116
:0101E8000214
:0101E9000114
:0101EA000113
:0101EB000112
:0101EC00030F
:0101ED00020F
:0101EE00020E
:0101EF00030C
:0101F000000E
:0101F100020B
:0101F200010B
:0101F300010A
:0101F4000109
:0101F5000207
:0101F6000305
:0101F7000106
:0101F8000006
:0101F9000203
:0101FA000103
:0101FB000102
:0101FC000002
:0101FD000001
:0101FE000000
:0101FF0000FF
:00000001ff
